{
  "address": "0x6A579BcACFEcB49027a82B9088369aBeeDd2528c",
  "abi": [
    {
      "inputs": [],
      "name": "CanNotDecreaseNFTNum",
      "type": "error"
    },
    {
      "inputs": [],
      "name": "EmptyUri",
      "type": "error"
    },
    {
      "inputs": [],
      "name": "IdNotExists",
      "type": "error"
    },
    {
      "inputs": [],
      "name": "NewCapCanNotZero",
      "type": "error"
    },
    {
      "inputs": [],
      "name": "SupplyCapReached",
      "type": "error"
    },
    {
      "inputs": [],
      "name": "ZeroAmount",
      "type": "error"
    },
    {
      "anonymous": false,
      "inputs": [
        {
          "indexed": true,
          "internalType": "address",
          "name": "account",
          "type": "address"
        },
        {
          "indexed": true,
          "internalType": "address",
          "name": "operator",
          "type": "address"
        },
        {
          "indexed": false,
          "internalType": "bool",
          "name": "approved",
          "type": "bool"
        }
      ],
      "name": "ApprovalForAll",
      "type": "event"
    },
    {
      "anonymous": false,
      "inputs": [
        {
          "indexed": false,
          "internalType": "uint8",
          "name": "version",
          "type": "uint8"
        }
      ],
      "name": "Initialized",
      "type": "event"
    },
    {
      "anonymous": false,
      "inputs": [
        {
          "indexed": true,
          "internalType": "address",
          "name": "account",
          "type": "address"
        },
        {
          "indexed": true,
          "internalType": "uint256",
          "name": "id",
          "type": "uint256"
        },
        {
          "indexed": true,
          "internalType": "uint256",
          "name": "amount",
          "type": "uint256"
        }
      ],
      "name": "Mint",
      "type": "event"
    },
    {
      "anonymous": false,
      "inputs": [
        {
          "indexed": true,
          "internalType": "address",
          "name": "previousOwner",
          "type": "address"
        },
        {
          "indexed": true,
          "internalType": "address",
          "name": "newOwner",
          "type": "address"
        }
      ],
      "name": "OwnershipTransferred",
      "type": "event"
    },
    {
      "anonymous": false,
      "inputs": [
        {
          "indexed": false,
          "internalType": "address",
          "name": "account",
          "type": "address"
        }
      ],
      "name": "Paused",
      "type": "event"
    },
    {
      "anonymous": false,
      "inputs": [
        {
          "indexed": true,
          "internalType": "address",
          "name": "operator",
          "type": "address"
        },
        {
          "indexed": true,
          "internalType": "address",
          "name": "from",
          "type": "address"
        },
        {
          "indexed": true,
          "internalType": "address",
          "name": "to",
          "type": "address"
        },
        {
          "indexed": false,
          "internalType": "uint256[]",
          "name": "ids",
          "type": "uint256[]"
        },
        {
          "indexed": false,
          "internalType": "uint256[]",
          "name": "values",
          "type": "uint256[]"
        }
      ],
      "name": "TransferBatch",
      "type": "event"
    },
    {
      "anonymous": false,
      "inputs": [
        {
          "indexed": true,
          "internalType": "address",
          "name": "operator",
          "type": "address"
        },
        {
          "indexed": true,
          "internalType": "address",
          "name": "from",
          "type": "address"
        },
        {
          "indexed": true,
          "internalType": "address",
          "name": "to",
          "type": "address"
        },
        {
          "indexed": false,
          "internalType": "uint256",
          "name": "id",
          "type": "uint256"
        },
        {
          "indexed": false,
          "internalType": "uint256",
          "name": "value",
          "type": "uint256"
        }
      ],
      "name": "TransferSingle",
      "type": "event"
    },
    {
      "anonymous": false,
      "inputs": [
        {
          "indexed": false,
          "internalType": "string",
          "name": "value",
          "type": "string"
        },
        {
          "indexed": true,
          "internalType": "uint256",
          "name": "id",
          "type": "uint256"
        }
      ],
      "name": "URI",
      "type": "event"
    },
    {
      "anonymous": false,
      "inputs": [
        {
          "indexed": false,
          "internalType": "address",
          "name": "account",
          "type": "address"
        }
      ],
      "name": "Unpaused",
      "type": "event"
    },
    {
      "anonymous": false,
      "inputs": [
        {
          "indexed": false,
          "internalType": "uint256",
          "name": "oldCap",
          "type": "uint256"
        },
        {
          "indexed": false,
          "internalType": "uint256",
          "name": "newCap",
          "type": "uint256"
        }
      ],
      "name": "UpdateCap",
      "type": "event"
    },
    {
      "anonymous": false,
      "inputs": [
        {
          "indexed": true,
          "internalType": "uint256",
          "name": "oldNum",
          "type": "uint256"
        },
        {
          "indexed": true,
          "internalType": "uint256",
          "name": "newNum",
          "type": "uint256"
        }
      ],
      "name": "UpdateNFTNum",
      "type": "event"
    },
    {
      "inputs": [
        {
          "internalType": "address",
          "name": "account",
          "type": "address"
        },
        {
          "internalType": "uint256",
          "name": "id",
          "type": "uint256"
        }
      ],
      "name": "balanceOf",
      "outputs": [
        {
          "internalType": "uint256",
          "name": "",
          "type": "uint256"
        }
      ],
      "stateMutability": "view",
      "type": "function"
    },
    {
      "inputs": [
        {
          "internalType": "address[]",
          "name": "accounts",
          "type": "address[]"
        },
        {
          "internalType": "uint256[]",
          "name": "ids",
          "type": "uint256[]"
        }
      ],
      "name": "balanceOfBatch",
      "outputs": [
        {
          "internalType": "uint256[]",
          "name": "",
          "type": "uint256[]"
        }
      ],
      "stateMutability": "view",
      "type": "function"
    },
    {
      "inputs": [
        {
          "internalType": "uint256",
          "name": "id",
          "type": "uint256"
        }
      ],
      "name": "exists",
      "outputs": [
        {
          "internalType": "bool",
          "name": "",
          "type": "bool"
        }
      ],
      "stateMutability": "view",
      "type": "function"
    },
    {
      "inputs": [
        {
          "internalType": "string",
          "name": "_name",
          "type": "string"
        },
        {
          "internalType": "string",
          "name": "_uri",
          "type": "string"
        }
      ],
      "name": "initialize",
      "outputs": [],
      "stateMutability": "nonpayable",
      "type": "function"
    },
    {
      "inputs": [
        {
          "internalType": "address",
          "name": "account",
          "type": "address"
        },
        {
          "internalType": "address",
          "name": "operator",
          "type": "address"
        }
      ],
      "name": "isApprovedForAll",
      "outputs": [
        {
          "internalType": "bool",
          "name": "",
          "type": "bool"
        }
      ],
      "stateMutability": "view",
      "type": "function"
    },
    {
      "inputs": [
        {
          "internalType": "uint256",
          "name": "id",
          "type": "uint256"
        },
        {
          "internalType": "uint256",
          "name": "amount",
          "type": "uint256"
        }
      ],
      "name": "mint",
      "outputs": [],
      "stateMutability": "nonpayable",
      "type": "function"
    },
    {
      "inputs": [],
      "name": "name",
      "outputs": [
        {
          "internalType": "string",
          "name": "",
          "type": "string"
        }
      ],
      "stateMutability": "view",
      "type": "function"
    },
    {
      "inputs": [],
      "name": "owner",
      "outputs": [
        {
          "internalType": "address",
          "name": "",
          "type": "address"
        }
      ],
      "stateMutability": "view",
      "type": "function"
    },
    {
      "inputs": [],
      "name": "paused",
      "outputs": [
        {
          "internalType": "bool",
          "name": "",
          "type": "bool"
        }
      ],
      "stateMutability": "view",
      "type": "function"
    },
    {
      "inputs": [],
      "name": "renounceOwnership",
      "outputs": [],
      "stateMutability": "nonpayable",
      "type": "function"
    },
    {
      "inputs": [
        {
          "internalType": "address",
          "name": "from",
          "type": "address"
        },
        {
          "internalType": "address",
          "name": "to",
          "type": "address"
        },
        {
          "internalType": "uint256[]",
          "name": "ids",
          "type": "uint256[]"
        },
        {
          "internalType": "uint256[]",
          "name": "amounts",
          "type": "uint256[]"
        },
        {
          "internalType": "bytes",
          "name": "data",
          "type": "bytes"
        }
      ],
      "name": "safeBatchTransferFrom",
      "outputs": [],
      "stateMutability": "nonpayable",
      "type": "function"
    },
    {
      "inputs": [
        {
          "internalType": "address",
          "name": "from",
          "type": "address"
        },
        {
          "internalType": "address",
          "name": "to",
          "type": "address"
        },
        {
          "internalType": "uint256",
          "name": "id",
          "type": "uint256"
        },
        {
          "internalType": "uint256",
          "name": "amount",
          "type": "uint256"
        },
        {
          "internalType": "bytes",
          "name": "data",
          "type": "bytes"
        }
      ],
      "name": "safeTransferFrom",
      "outputs": [],
      "stateMutability": "nonpayable",
      "type": "function"
    },
    {
      "inputs": [
        {
          "internalType": "address",
          "name": "operator",
          "type": "address"
        },
        {
          "internalType": "bool",
          "name": "approved",
          "type": "bool"
        }
      ],
      "name": "setApprovalForAll",
      "outputs": [],
      "stateMutability": "nonpayable",
      "type": "function"
    },
    {
      "inputs": [
        {
          "internalType": "string",
          "name": "newUri",
          "type": "string"
        }
      ],
      "name": "setURI",
      "outputs": [],
      "stateMutability": "nonpayable",
      "type": "function"
    },
    {
      "inputs": [
        {
          "internalType": "bytes4",
          "name": "interfaceId",
          "type": "bytes4"
        }
      ],
      "name": "supportsInterface",
      "outputs": [
        {
          "internalType": "bool",
          "name": "",
          "type": "bool"
        }
      ],
      "stateMutability": "view",
      "type": "function"
    },
    {
      "inputs": [
        {
          "internalType": "uint256",
          "name": "id",
          "type": "uint256"
        }
      ],
      "name": "totalSupply",
      "outputs": [
        {
          "internalType": "uint256",
          "name": "",
          "type": "uint256"
        }
      ],
      "stateMutability": "view",
      "type": "function"
    },
    {
      "inputs": [
        {
          "internalType": "address",
          "name": "newOwner",
          "type": "address"
        }
      ],
      "name": "transferOwnership",
      "outputs": [],
      "stateMutability": "nonpayable",
      "type": "function"
    },
    {
      "inputs": [
        {
          "internalType": "uint256",
          "name": "newNumber",
          "type": "uint256"
        }
      ],
      "name": "updateNFTNumber",
      "outputs": [],
      "stateMutability": "nonpayable",
      "type": "function"
    },
    {
      "inputs": [
        {
          "internalType": "uint256",
          "name": "id",
          "type": "uint256"
        },
        {
          "internalType": "uint256",
          "name": "newCap",
          "type": "uint256"
        }
      ],
      "name": "updateSupplyCap",
      "outputs": [],
      "stateMutability": "nonpayable",
      "type": "function"
    },
    {
      "inputs": [
        {
          "internalType": "uint256",
          "name": "_id",
          "type": "uint256"
        }
      ],
      "name": "uri",
      "outputs": [
        {
          "internalType": "string",
          "name": "",
          "type": "string"
        }
      ],
      "stateMutability": "view",
      "type": "function"
    },
    {
      "stateMutability": "payable",
      "type": "receive"
    }
  ],
  "transactionHash": "0x6945978d2bc29e1578ac0657c8344070e5a156d55ba09be4a963b495245f02ac",
  "args": [],
  "numDeployments": 2,
  "solcInputHash": "d66e92a275d1a6525ee461df2d8ff043",
  "bytecode": "0x600360ca81905560e060405260326080908152609660a05260fa60c0526200002b9160cb919062000040565b503480156200003957600080fd5b50620000ac565b82805482825590600052602060002090810192821562000083579160200282015b8281111562000083578251829060ff1690559160200191906001019062000061565b506200009192915062000095565b5090565b5b8082111562000091576000815560010162000096565b61242e80620000bc6000396000f3fe6080604052600436106101225760003560e01c80635c975abb116100a0578063bd85b03911610064578063bd85b0391461034b578063e51bf35114610379578063e985e9c514610399578063f242432a146103e2578063f2fde38b1461040257600080fd5b80635c975abb146102b5578063715018a6146102ce57806389544554146102e35780638da5cb5b14610303578063a22cb4651461032b57600080fd5b80631b2ef1ca116100e75780631b2ef1ca146101f85780632eb2c2d6146102185780634cd88b76146102385780634e1273f4146102585780634f558e791461028557600080fd5b8062fdd58e1461013157806301ffc9a71461016457806302fe53051461019457806306fdde03146101b65780630e89341c146101d857600080fd5b3661012c57600080fd5b600080fd5b34801561013d57600080fd5b5061015161014c36600461198c565b610422565b6040519081526020015b60405180910390f35b34801561017057600080fd5b5061018461017f3660046119cc565b6104bd565b604051901515815260200161015b565b3480156101a057600080fd5b506101b46101af366004611aa7565b61050d565b005b3480156101c257600080fd5b506101cb610543565b60405161015b9190611b34565b3480156101e457600080fd5b506101cb6101f3366004611b47565b6105d1565b34801561020457600080fd5b506101b4610213366004611b60565b61064a565b34801561022457600080fd5b506101b4610233366004611c17565b610743565b34801561024457600080fd5b506101b4610253366004611cc1565b61078f565b34801561026457600080fd5b50610278610273366004611d25565b6108c8565b60405161015b9190611e21565b34801561029157600080fd5b506101846102a0366004611b47565b60009081526101396020526040902054151590565b3480156102c157600080fd5b506101075460ff16610184565b3480156102da57600080fd5b506101b46109f2565b3480156102ef57600080fd5b506101b46102fe366004611b47565b610a06565b34801561030f57600080fd5b506097546040516001600160a01b03909116815260200161015b565b34801561033757600080fd5b506101b4610346366004611e34565b610a65565b34801561035757600080fd5b50610151610366366004611b47565b6000908152610139602052604090205490565b34801561038557600080fd5b506101b4610394366004611b60565b610a74565b3480156103a557600080fd5b506101846103b4366004611e70565b6001600160a01b03918216600090815260666020908152604080832093909416825291909152205460ff1690565b3480156103ee57600080fd5b506101b46103fd366004611ea3565b610b55565b34801561040e57600080fd5b506101b461041d366004611f08565b610b9a565b60006001600160a01b0383166104925760405162461bcd60e51b815260206004820152602a60248201527f455243313135353a2061646472657373207a65726f206973206e6f742061207660448201526930b634b21037bbb732b960b11b60648201526084015b60405180910390fd5b5060008181526065602090815260408083206001600160a01b03861684529091529020545b92915050565b60006001600160e01b03198216636cdb3d1360e11b14806104ee57506001600160e01b031982166303a24d0760e21b145b806104b757506301ffc9a760e01b6001600160e01b03198316146104b7565b610515610c10565b80516000036105375760405163d64becfd60e01b815260040160405180910390fd5b61054081610c6a565b50565b60c9805461055090611f23565b80601f016020809104026020016040519081016040528092919081815260200182805461057c90611f23565b80156105c95780601f1061059e576101008083540402835291602001916105c9565b820191906000526020600020905b8154815290600101906020018083116105ac57829003601f168201915b505050505081565b6060816105ed8160009081526101396020526040902054151590565b151560000361060f5760405163798af7b160e01b815260040160405180910390fd5b61061883610c76565b61062184610d0a565b604051602001610632929190611f57565b60405160208183030381529060405291505b50919050565b610652610c10565b8060000361067357604051631f2a200560e01b815260040160405180910390fd5b60ca548211156106965760405163798af7b160e01b815260040160405180910390fd5b60cb82815481106106a9576106a9611f96565b9060005260206000200154816106cc846000908152610139602052604090205490565b6106d69190611fc2565b11156106f5576040516354db2d5d60e11b815260040160405180910390fd5b61071033838360405180602001604052806000815250610d9d565b6040518190839033907f4c209b5fc8ad50758f13e2e1088ba56a560dff690a1c6fef26394f4c03821c4f90600090a45050565b6001600160a01b03851633148061075f575061075f85336103b4565b61077b5760405162461bcd60e51b815260040161048990611fd5565b6107888585858585610ec2565b5050505050565b600054610100900460ff16158080156107af5750600054600160ff909116105b806107c95750303b1580156107c9575060005460ff166001145b61082c5760405162461bcd60e51b815260206004820152602e60248201527f496e697469616c697a61626c653a20636f6e747261637420697320616c72656160448201526d191e481a5b9a5d1a585b1a5e995960921b6064820152608401610489565b6000805460ff19166001179055801561084f576000805461ff0019166101001790555b610858826110b0565b6108606110e0565b61086861110f565b61087061113e565b60c961087c8482612069565b5080156108c3576000805461ff0019169055604051600181527f7f26b83ff96e1f2b6a682f133852f6798a09c465da95921460cefb38474024989060200160405180910390a15b505050565b6060815183511461092d5760405162461bcd60e51b815260206004820152602960248201527f455243313135353a206163636f756e747320616e6420696473206c656e677468604482015268040dad2e6dac2e8c6d60bb1b6064820152608401610489565b6000835167ffffffffffffffff811115610949576109496119f0565b604051908082528060200260200182016040528015610972578160200160208202803683370190505b50905060005b84518110156109ea576109bd85828151811061099657610996611f96565b60200260200101518583815181106109b0576109b0611f96565b6020026020010151610422565b8282815181106109cf576109cf611f96565b60209081029190910101526109e381612129565b9050610978565b509392505050565b6109fa610c10565b610a046000611165565b565b610a0e610c10565b60ca54811015610a3157604051633d6eaff360e11b815260040160405180910390fd5b60ca546040518291907f8e802e7a2d380e9127f7be04636a39aa2968537ef285cf669e48054e9aabd0dd90600090a360ca55565b610a703383836111b7565b5050565b6000828152610139602052604081205483919015159003610aa85760405163798af7b160e01b815260040160405180910390fd5b610ab0610c10565b81600003610ad15760405163092ea77160e31b815260040160405180910390fd5b7f3c8946b391adf4736d3ebc46f4e2cf8ea441f02b0295b98a0098d6a1d3380cd660cb8481548110610b0557610b05611f96565b906000526020600020015483604051610b28929190918252602082015260400190565b60405180910390a18160cb8481548110610b4457610b44611f96565b600091825260209091200155505050565b6001600160a01b038516331480610b715750610b7185336103b4565b610b8d5760405162461bcd60e51b815260040161048990611fd5565b6107888585858585611297565b610ba2610c10565b6001600160a01b038116610c075760405162461bcd60e51b815260206004820152602660248201527f4f776e61626c653a206e6577206f776e657220697320746865207a65726f206160448201526564647265737360d01b6064820152608401610489565b61054081611165565b6097546001600160a01b03163314610a045760405162461bcd60e51b815260206004820181905260248201527f4f776e61626c653a2063616c6c6572206973206e6f7420746865206f776e65726044820152606401610489565b6067610a708282612069565b606060678054610c8590611f23565b80601f0160208091040260200160405190810160405280929190818152602001828054610cb190611f23565b8015610cfe5780601f10610cd357610100808354040283529160200191610cfe565b820191906000526020600020905b815481529060010190602001808311610ce157829003601f168201915b50505050509050919050565b60606000610d17836113d3565b600101905060008167ffffffffffffffff811115610d3757610d376119f0565b6040519080825280601f01601f191660200182016040528015610d61576020820181803683370190505b5090508181016020015b600019016f181899199a1a9b1b9c1cb0b131b232b360811b600a86061a8153600a8504945084610d6b57509392505050565b6001600160a01b038416610dfd5760405162461bcd60e51b815260206004820152602160248201527f455243313135353a206d696e7420746f20746865207a65726f206164647265736044820152607360f81b6064820152608401610489565b336000610e09856114ab565b90506000610e16856114ab565b9050610e27836000898585896114f6565b60008681526065602090815260408083206001600160a01b038b16845290915281208054879290610e59908490611fc2565b909155505060408051878152602081018790526001600160a01b03808a1692600092918716917fc3d58168c5ae7397731d063d5bbf3d657854427343f4c083240f7aacaa2d0f62910160405180910390a4610eb98360008989898961150c565b50505050505050565b8151835114610f245760405162461bcd60e51b815260206004820152602860248201527f455243313135353a2069647320616e6420616d6f756e7473206c656e677468206044820152670dad2e6dac2e8c6d60c31b6064820152608401610489565b6001600160a01b038416610f4a5760405162461bcd60e51b815260040161048990612142565b33610f598187878787876114f6565b60005b8451811015611042576000858281518110610f7957610f79611f96565b602002602001015190506000858381518110610f9757610f97611f96565b60209081029190910181015160008481526065835260408082206001600160a01b038e168352909352919091205490915081811015610fe85760405162461bcd60e51b815260040161048990612187565b60008381526065602090815260408083206001600160a01b038e8116855292528083208585039055908b16825281208054849290611027908490611fc2565b925050819055505050508061103b90612129565b9050610f5c565b50846001600160a01b0316866001600160a01b0316826001600160a01b03167f4a39dc06d4c0dbc64b70af90fd698a233a518aa5d07e595d983b8c0526c8f7fb87876040516110929291906121d1565b60405180910390a46110a8818787878787611667565b505050505050565b600054610100900460ff166110d75760405162461bcd60e51b8152600401610489906121ff565b61054081611722565b600054610100900460ff166111075760405162461bcd60e51b8152600401610489906121ff565b610a04611749565b600054610100900460ff166111365760405162461bcd60e51b8152600401610489906121ff565b610a04611779565b600054610100900460ff16610a045760405162461bcd60e51b8152600401610489906121ff565b609780546001600160a01b038381166001600160a01b0319831681179093556040519116919082907f8be0079c531659141344cd1fd0a4f28419497f9722a3daafe3b4186f6b6457e090600090a35050565b816001600160a01b0316836001600160a01b03160361122a5760405162461bcd60e51b815260206004820152602960248201527f455243313135353a2073657474696e6720617070726f76616c20737461747573604482015268103337b91039b2b63360b91b6064820152608401610489565b6001600160a01b03838116600081815260666020908152604080832094871680845294825291829020805460ff191686151590811790915591519182527f17307eab39ab6107e8899845ad3d59bd9653f200f220920489ca2b5937696c31910160405180910390a3505050565b6001600160a01b0384166112bd5760405162461bcd60e51b815260040161048990612142565b3360006112c9856114ab565b905060006112d6856114ab565b90506112e68389898585896114f6565b60008681526065602090815260408083206001600160a01b038c168452909152902054858110156113295760405162461bcd60e51b815260040161048990612187565b60008781526065602090815260408083206001600160a01b038d8116855292528083208985039055908a16825281208054889290611368908490611fc2565b909155505060408051888152602081018890526001600160a01b03808b16928c821692918816917fc3d58168c5ae7397731d063d5bbf3d657854427343f4c083240f7aacaa2d0f62910160405180910390a46113c8848a8a8a8a8a61150c565b505050505050505050565b60008072184f03e93ff9f4daa797ed6e38ed64bf6a1f0160401b83106114125772184f03e93ff9f4daa797ed6e38ed64bf6a1f0160401b830492506040015b6d04ee2d6d415b85acef8100000000831061143e576d04ee2d6d415b85acef8100000000830492506020015b662386f26fc10000831061145c57662386f26fc10000830492506010015b6305f5e1008310611474576305f5e100830492506008015b612710831061148857612710830492506004015b6064831061149a576064830492506002015b600a83106104b75760010192915050565b604080516001808252818301909252606091600091906020808301908036833701905050905082816000815181106114e5576114e5611f96565b602090810291909101015292915050565b6114fe6117ad565b6110a88686868686866117f4565b6001600160a01b0384163b156110a85760405163f23a6e6160e01b81526001600160a01b0385169063f23a6e6190611550908990899088908890889060040161224a565b6020604051808303816000875af192505050801561158b575060408051601f3d908101601f191682019092526115889181019061228f565b60015b611637576115976122ac565b806308c379a0036115d057506115ab6122c8565b806115b657506115d2565b8060405162461bcd60e51b81526004016104899190611b34565b505b60405162461bcd60e51b815260206004820152603460248201527f455243313135353a207472616e7366657220746f206e6f6e2d455243313135356044820152732932b1b2b4bb32b91034b6b83632b6b2b73a32b960611b6064820152608401610489565b6001600160e01b0319811663f23a6e6160e01b14610eb95760405162461bcd60e51b815260040161048990612352565b6001600160a01b0384163b156110a85760405163bc197c8160e01b81526001600160a01b0385169063bc197c81906116ab908990899088908890889060040161239a565b6020604051808303816000875af19250505080156116e6575060408051601f3d908101601f191682019092526116e39181019061228f565b60015b6116f2576115976122ac565b6001600160e01b0319811663bc197c8160e01b14610eb95760405162461bcd60e51b815260040161048990612352565b600054610100900460ff166105375760405162461bcd60e51b8152600401610489906121ff565b600054610100900460ff166117705760405162461bcd60e51b8152600401610489906121ff565b610a0433611165565b600054610100900460ff166117a05760405162461bcd60e51b8152600401610489906121ff565b610107805460ff19169055565b6101075460ff1615610a045760405162461bcd60e51b815260206004820152601060248201526f14185d5cd8589b194e881c185d5cd95960821b6044820152606401610489565b6001600160a01b03851661187c5760005b835181101561187a5782818151811061182057611820611f96565b6020026020010151610139600086848151811061183f5761183f611f96565b6020026020010151815260200190815260200160002060008282546118649190611fc2565b90915550611873905081612129565b9050611805565b505b6001600160a01b0384166110a85760005b8351811015610eb95760008482815181106118aa576118aa611f96565b6020026020010151905060008483815181106118c8576118c8611f96565b60200260200101519050600061013960008481526020019081526020016000205490508181101561194c5760405162461bcd60e51b815260206004820152602860248201527f455243313135353a206275726e20616d6f756e74206578636565647320746f74604482015267616c537570706c7960c01b6064820152608401610489565b600092835261013960205260409092209103905561196981612129565b905061188d565b80356001600160a01b038116811461198757600080fd5b919050565b6000806040838503121561199f57600080fd5b6119a883611970565b946020939093013593505050565b6001600160e01b03198116811461054057600080fd5b6000602082840312156119de57600080fd5b81356119e9816119b6565b9392505050565b634e487b7160e01b600052604160045260246000fd5b601f8201601f1916810167ffffffffffffffff81118282101715611a2c57611a2c6119f0565b6040525050565b600082601f830112611a4457600080fd5b813567ffffffffffffffff811115611a5e57611a5e6119f0565b604051611a75601f8301601f191660200182611a06565b818152846020838601011115611a8a57600080fd5b816020850160208301376000918101602001919091529392505050565b600060208284031215611ab957600080fd5b813567ffffffffffffffff811115611ad057600080fd5b611adc84828501611a33565b949350505050565b60005b83811015611aff578181015183820152602001611ae7565b50506000910152565b60008151808452611b20816020860160208601611ae4565b601f01601f19169290920160200192915050565b6020815260006119e96020830184611b08565b600060208284031215611b5957600080fd5b5035919050565b60008060408385031215611b7357600080fd5b50508035926020909101359150565b600067ffffffffffffffff821115611b9c57611b9c6119f0565b5060051b60200190565b600082601f830112611bb757600080fd5b81356020611bc482611b82565b604051611bd18282611a06565b83815260059390931b8501820192828101915086841115611bf157600080fd5b8286015b84811015611c0c5780358352918301918301611bf5565b509695505050505050565b600080600080600060a08688031215611c2f57600080fd5b611c3886611970565b9450611c4660208701611970565b9350604086013567ffffffffffffffff80821115611c6357600080fd5b611c6f89838a01611ba6565b94506060880135915080821115611c8557600080fd5b611c9189838a01611ba6565b93506080880135915080821115611ca757600080fd5b50611cb488828901611a33565b9150509295509295909350565b60008060408385031215611cd457600080fd5b823567ffffffffffffffff80821115611cec57600080fd5b611cf886838701611a33565b93506020850135915080821115611d0e57600080fd5b50611d1b85828601611a33565b9150509250929050565b60008060408385031215611d3857600080fd5b823567ffffffffffffffff80821115611d5057600080fd5b818501915085601f830112611d6457600080fd5b81356020611d7182611b82565b604051611d7e8282611a06565b83815260059390931b8501820192828101915089841115611d9e57600080fd5b948201945b83861015611dc357611db486611970565b82529482019490820190611da3565b96505086013592505080821115611dd957600080fd5b50611d1b85828601611ba6565b600081518084526020808501945080840160005b83811015611e1657815187529582019590820190600101611dfa565b509495945050505050565b6020815260006119e96020830184611de6565b60008060408385031215611e4757600080fd5b611e5083611970565b915060208301358015158114611e6557600080fd5b809150509250929050565b60008060408385031215611e8357600080fd5b611e8c83611970565b9150611e9a60208401611970565b90509250929050565b600080600080600060a08688031215611ebb57600080fd5b611ec486611970565b9450611ed260208701611970565b93506040860135925060608601359150608086013567ffffffffffffffff811115611efc57600080fd5b611cb488828901611a33565b600060208284031215611f1a57600080fd5b6119e982611970565b600181811c90821680611f3757607f821691505b60208210810361064457634e487b7160e01b600052602260045260246000fd5b60008351611f69818460208801611ae4565b835190830190611f7d818360208801611ae4565b64173539b7b760d91b9101908152600501949350505050565b634e487b7160e01b600052603260045260246000fd5b634e487b7160e01b600052601160045260246000fd5b808201808211156104b7576104b7611fac565b6020808252602e908201527f455243313135353a2063616c6c6572206973206e6f7420746f6b656e206f776e60408201526d195c881bdc88185c1c1c9bdd995960921b606082015260800190565b601f8211156108c357600081815260208120601f850160051c8101602086101561204a5750805b601f850160051c820191505b818110156110a857828155600101612056565b815167ffffffffffffffff811115612083576120836119f0565b612097816120918454611f23565b84612023565b602080601f8311600181146120cc57600084156120b45750858301515b600019600386901b1c1916600185901b1785556110a8565b600085815260208120601f198616915b828110156120fb578886015182559484019460019091019084016120dc565b50858210156121195787850151600019600388901b60f8161c191681555b5050505050600190811b01905550565b60006001820161213b5761213b611fac565b5060010190565b60208082526025908201527f455243313135353a207472616e7366657220746f20746865207a65726f206164604082015264647265737360d81b606082015260800190565b6020808252602a908201527f455243313135353a20696e73756666696369656e742062616c616e636520666f60408201526939103a3930b739b332b960b11b606082015260800190565b6040815260006121e46040830185611de6565b82810360208401526121f68185611de6565b95945050505050565b6020808252602b908201527f496e697469616c697a61626c653a20636f6e7472616374206973206e6f74206960408201526a6e697469616c697a696e6760a81b606082015260800190565b6001600160a01b03868116825285166020820152604081018490526060810183905260a06080820181905260009061228490830184611b08565b979650505050505050565b6000602082840312156122a157600080fd5b81516119e9816119b6565b600060033d11156122c55760046000803e5060005160e01c5b90565b600060443d10156122d65790565b6040516003193d81016004833e81513d67ffffffffffffffff816024840111818411171561230657505050505090565b828501915081518181111561231e5750505050505090565b843d87010160208285010111156123385750505050505090565b61234760208286010187611a06565b509095945050505050565b60208082526028908201527f455243313135353a204552433131353552656365697665722072656a656374656040820152676420746f6b656e7360c01b606082015260800190565b6001600160a01b0386811682528516602082015260a0604082018190526000906123c690830186611de6565b82810360608401526123d88186611de6565b905082810360808401526123ec8185611b08565b9897505050505050505056fea26469706673582212204167b72823b6299135e4124f739634c4d0419cfd6930b1c48a0f01591f92bf1a64736f6c63430008120033",
  "devdoc": {
    "events": {
      "ApprovalForAll(address,address,bool)": {
        "details": "Emitted when `account` grants or revokes permission to `operator` to transfer their tokens, according to `approved`."
      },
      "Initialized(uint8)": {
        "details": "Triggered when the contract has been initialized or reinitialized."
      },
      "Paused(address)": {
        "details": "Emitted when the pause is triggered by `account`."
      },
      "TransferBatch(address,address,address,uint256[],uint256[])": {
        "details": "Equivalent to multiple {TransferSingle} events, where `operator`, `from` and `to` are the same for all transfers."
      },
      "TransferSingle(address,address,address,uint256,uint256)": {
        "details": "Emitted when `value` tokens of token type `id` are transferred from `from` to `to` by `operator`."
      },
      "URI(string,uint256)": {
        "details": "Emitted when the URI for token type `id` changes to `value`, if it is a non-programmatic URI. If an {URI} event was emitted for `id`, the standard https://eips.ethereum.org/EIPS/eip-1155#metadata-extensions[guarantees] that `value` will equal the value returned by {IERC1155MetadataURI-uri}."
      },
      "Unpaused(address)": {
        "details": "Emitted when the pause is lifted by `account`."
      }
    },
    "kind": "dev",
    "methods": {
      "balanceOf(address,uint256)": {
        "details": "See {IERC1155-balanceOf}. Requirements: - `account` cannot be the zero address."
      },
      "balanceOfBatch(address[],uint256[])": {
        "details": "See {IERC1155-balanceOfBatch}. Requirements: - `accounts` and `ids` must have the same length."
      },
      "exists(uint256)": {
        "details": "Indicates whether any token exist with a given id, or not."
      },
      "isApprovedForAll(address,address)": {
        "details": "See {IERC1155-isApprovedForAll}."
      },
      "mint(uint256,uint256)": {
        "details": "Mint new NFTs",
        "params": {
          "amount": "The number of NFTs to mint",
          "id": "The NFT type ID"
        }
      },
      "owner()": {
        "details": "Returns the address of the current owner."
      },
      "paused()": {
        "details": "Returns true if the contract is paused, and false otherwise."
      },
      "renounceOwnership()": {
        "details": "Leaves the contract without owner. It will not be possible to call `onlyOwner` functions. Can only be called by the current owner. NOTE: Renouncing ownership will leave the contract without an owner, thereby disabling any functionality that is only available to the owner."
      },
      "safeBatchTransferFrom(address,address,uint256[],uint256[],bytes)": {
        "details": "See {IERC1155-safeBatchTransferFrom}."
      },
      "safeTransferFrom(address,address,uint256,uint256,bytes)": {
        "details": "See {IERC1155-safeTransferFrom}."
      },
      "setApprovalForAll(address,bool)": {
        "details": "See {IERC1155-setApprovalForAll}."
      },
      "setURI(string)": {
        "details": "Set the URI for the NFTs",
        "params": {
          "newUri": "The new base URI for the NFTs"
        }
      },
      "supportsInterface(bytes4)": {
        "details": "See {IERC165-supportsInterface}."
      },
      "totalSupply(uint256)": {
        "details": "Total amount of tokens in with a given id."
      },
      "transferOwnership(address)": {
        "details": "Transfers ownership of the contract to a new account (`newOwner`). Can only be called by the current owner."
      },
      "updateNFTNumber(uint256)": {
        "details": "Update the total number of NFTs available",
        "params": {
          "newNumber": "The new total number of NFTs"
        }
      },
      "updateSupplyCap(uint256,uint256)": {
        "details": "Update the supply cap for an NFT",
        "params": {
          "id": "The NFT type ID",
          "newCap": "The new supply cap for the NFT type"
        }
      },
      "uri(uint256)": {
        "details": "Get the URI for a specific NFT",
        "params": {
          "_id": "The NFT type ID"
        },
        "returns": {
          "_0": "The URI of the NFT"
        }
      }
    },
    "version": 1
  },
  "userdoc": {
    "kind": "user",
    "methods": {},
    "version": 1
  },
  "storageLayout": {
    "storage": [
      {
        "astId": 138,
        "contract": "contracts/GenZNFT.sol:GenZNFT",
        "label": "_initialized",
        "offset": 0,
        "slot": "0",
        "type": "t_uint8"
      },
      {
        "astId": 141,
        "contract": "contracts/GenZNFT.sol:GenZNFT",
        "label": "_initializing",
        "offset": 1,
        "slot": "0",
        "type": "t_bool"
      },
      {
        "astId": 2398,
        "contract": "contracts/GenZNFT.sol:GenZNFT",
        "label": "__gap",
        "offset": 0,
        "slot": "1",
        "type": "t_array(t_uint256)50_storage"
      },
      {
        "astId": 2671,
        "contract": "contracts/GenZNFT.sol:GenZNFT",
        "label": "__gap",
        "offset": 0,
        "slot": "51",
        "type": "t_array(t_uint256)50_storage"
      },
      {
        "astId": 456,
        "contract": "contracts/GenZNFT.sol:GenZNFT",
        "label": "_balances",
        "offset": 0,
        "slot": "101",
        "type": "t_mapping(t_uint256,t_mapping(t_address,t_uint256))"
      },
      {
        "astId": 462,
        "contract": "contracts/GenZNFT.sol:GenZNFT",
        "label": "_operatorApprovals",
        "offset": 0,
        "slot": "102",
        "type": "t_mapping(t_address,t_mapping(t_address,t_bool))"
      },
      {
        "astId": 464,
        "contract": "contracts/GenZNFT.sol:GenZNFT",
        "label": "_uri",
        "offset": 0,
        "slot": "103",
        "type": "t_string_storage"
      },
      {
        "astId": 1671,
        "contract": "contracts/GenZNFT.sol:GenZNFT",
        "label": "__gap",
        "offset": 0,
        "slot": "104",
        "type": "t_array(t_uint256)47_storage"
      },
      {
        "astId": 10,
        "contract": "contracts/GenZNFT.sol:GenZNFT",
        "label": "_owner",
        "offset": 0,
        "slot": "151",
        "type": "t_address"
      },
      {
        "astId": 130,
        "contract": "contracts/GenZNFT.sol:GenZNFT",
        "label": "__gap",
        "offset": 0,
        "slot": "152",
        "type": "t_array(t_uint256)49_storage"
      },
      {
        "astId": 6106,
        "contract": "contracts/GenZNFT.sol:GenZNFT",
        "label": "name",
        "offset": 0,
        "slot": "201",
        "type": "t_string_storage"
      },
      {
        "astId": 6109,
        "contract": "contracts/GenZNFT.sol:GenZNFT",
        "label": "numOfNFT",
        "offset": 0,
        "slot": "202",
        "type": "t_uint256"
      },
      {
        "astId": 6116,
        "contract": "contracts/GenZNFT.sol:GenZNFT",
        "label": "supplyCap",
        "offset": 0,
        "slot": "203",
        "type": "t_array(t_uint256)dyn_storage"
      },
      {
        "astId": 6120,
        "contract": "contracts/GenZNFT.sol:GenZNFT",
        "label": "__maze_gap",
        "offset": 0,
        "slot": "204",
        "type": "t_array(t_uint256)59_storage"
      },
      {
        "astId": 321,
        "contract": "contracts/GenZNFT.sol:GenZNFT",
        "label": "_paused",
        "offset": 0,
        "slot": "263",
        "type": "t_bool"
      },
      {
        "astId": 426,
        "contract": "contracts/GenZNFT.sol:GenZNFT",
        "label": "__gap",
        "offset": 0,
        "slot": "264",
        "type": "t_array(t_uint256)49_storage"
      },
      {
        "astId": 1860,
        "contract": "contracts/GenZNFT.sol:GenZNFT",
        "label": "_totalSupply",
        "offset": 0,
        "slot": "313",
        "type": "t_mapping(t_uint256,t_uint256)"
      },
      {
        "astId": 2011,
        "contract": "contracts/GenZNFT.sol:GenZNFT",
        "label": "__gap",
        "offset": 0,
        "slot": "314",
        "type": "t_array(t_uint256)49_storage"
      }
    ],
    "types": {
      "t_address": {
        "encoding": "inplace",
        "label": "address",
        "numberOfBytes": "20"
      },
      "t_array(t_uint256)47_storage": {
        "base": "t_uint256",
        "encoding": "inplace",
        "label": "uint256[47]",
        "numberOfBytes": "1504"
      },
      "t_array(t_uint256)49_storage": {
        "base": "t_uint256",
        "encoding": "inplace",
        "label": "uint256[49]",
        "numberOfBytes": "1568"
      },
      "t_array(t_uint256)50_storage": {
        "base": "t_uint256",
        "encoding": "inplace",
        "label": "uint256[50]",
        "numberOfBytes": "1600"
      },
      "t_array(t_uint256)59_storage": {
        "base": "t_uint256",
        "encoding": "inplace",
        "label": "uint256[59]",
        "numberOfBytes": "1888"
      },
      "t_array(t_uint256)dyn_storage": {
        "base": "t_uint256",
        "encoding": "dynamic_array",
        "label": "uint256[]",
        "numberOfBytes": "32"
      },
      "t_bool": {
        "encoding": "inplace",
        "label": "bool",
        "numberOfBytes": "1"
      },
      "t_mapping(t_address,t_bool)": {
        "encoding": "mapping",
        "key": "t_address",
        "label": "mapping(address => bool)",
        "numberOfBytes": "32",
        "value": "t_bool"
      },
      "t_mapping(t_address,t_mapping(t_address,t_bool))": {
        "encoding": "mapping",
        "key": "t_address",
        "label": "mapping(address => mapping(address => bool))",
        "numberOfBytes": "32",
        "value": "t_mapping(t_address,t_bool)"
      },
      "t_mapping(t_address,t_uint256)": {
        "encoding": "mapping",
        "key": "t_address",
        "label": "mapping(address => uint256)",
        "numberOfBytes": "32",
        "value": "t_uint256"
      },
      "t_mapping(t_uint256,t_mapping(t_address,t_uint256))": {
        "encoding": "mapping",
        "key": "t_uint256",
        "label": "mapping(uint256 => mapping(address => uint256))",
        "numberOfBytes": "32",
        "value": "t_mapping(t_address,t_uint256)"
      },
      "t_mapping(t_uint256,t_uint256)": {
        "encoding": "mapping",
        "key": "t_uint256",
        "label": "mapping(uint256 => uint256)",
        "numberOfBytes": "32",
        "value": "t_uint256"
      },
      "t_string_storage": {
        "encoding": "bytes",
        "label": "string",
        "numberOfBytes": "32"
      },
      "t_uint256": {
        "encoding": "inplace",
        "label": "uint256",
        "numberOfBytes": "32"
      },
      "t_uint8": {
        "encoding": "inplace",
        "label": "uint8",
        "numberOfBytes": "1"
      }
    }
  }
}