{
  "address": "0x9495917128F56DCfEAFe04A97Fa59EeF7407391F",
  "abi": [
    {
      "inputs": [
        {
          "internalType": "address",
          "name": "_logic",
          "type": "address"
        },
        {
          "internalType": "address",
          "name": "crAdmin",
          "type": "address"
        },
        {
          "internalType": "bytes",
          "name": "_data",
          "type": "bytes"
        }
      ],
      "stateMutability": "nonpayable",
      "type": "constructor"
    },
    {
      "anonymous": false,
      "inputs": [
        {
          "indexed": false,
          "internalType": "address",
          "name": "previousAdmin",
          "type": "address"
        },
        {
          "indexed": false,
          "internalType": "address",
          "name": "newAdmin",
          "type": "address"
        }
      ],
      "name": "AdminChanged",
      "type": "event"
    },
    {
      "anonymous": false,
      "inputs": [
        {
          "indexed": true,
          "internalType": "address",
          "name": "beacon",
          "type": "address"
        }
      ],
      "name": "BeaconUpgraded",
      "type": "event"
    },
    {
      "anonymous": false,
      "inputs": [
        {
          "indexed": true,
          "internalType": "address",
          "name": "implementation",
          "type": "address"
        }
      ],
      "name": "Upgraded",
      "type": "event"
    },
    {
      "stateMutability": "payable",
      "type": "fallback"
    },
    {
      "inputs": [],
      "name": "admin",
      "outputs": [
        {
          "internalType": "address",
          "name": "admin_",
          "type": "address"
        }
      ],
      "stateMutability": "nonpayable",
      "type": "function"
    },
    {
      "inputs": [
        {
          "internalType": "address",
          "name": "newAdmin",
          "type": "address"
        }
      ],
      "name": "changeAdmin",
      "outputs": [],
      "stateMutability": "nonpayable",
      "type": "function"
    },
    {
      "inputs": [],
      "name": "implementation",
      "outputs": [
        {
          "internalType": "address",
          "name": "implementation_",
          "type": "address"
        }
      ],
      "stateMutability": "nonpayable",
      "type": "function"
    },
    {
      "inputs": [],
      "name": "name",
      "outputs": [
        {
          "internalType": "string",
          "name": "",
          "type": "string"
        }
      ],
      "stateMutability": "view",
      "type": "function"
    },
    {
      "inputs": [
        {
          "internalType": "address",
          "name": "newImplementation",
          "type": "address"
        }
      ],
      "name": "upgradeTo",
      "outputs": [],
      "stateMutability": "nonpayable",
      "type": "function"
    },
    {
      "inputs": [
        {
          "internalType": "address",
          "name": "newImplementation",
          "type": "address"
        },
        {
          "internalType": "bytes",
          "name": "data",
          "type": "bytes"
        }
      ],
      "name": "upgradeToAndCall",
      "outputs": [],
      "stateMutability": "payable",
      "type": "function"
    },
    {
      "stateMutability": "payable",
      "type": "receive"
    }
  ],
  "transactionHash": "0xc81776f5a05e9cf75464a81f888cd958906feefe34ba33d1dc98207ce598389c",
  "args": [
    "0x315a8Cca4feC8Dd33C3726DD4872D5fDc84760BE",
    "0xE0E24a32A7e50Ea1c7881c54bfC1934e9b50B520",
    "0x"
  ],
  "numDeployments": 1,
  "solcInputHash": "22484b1f34d8fe5198e1f684d6e2ef2e",
  "bytecode": "0x6003600181905560e060405260326080908152609660a05260fa60c0526200002b91600291906200047a565b503480156200003957600080fd5b5060405162000ff338038062000ff38339810160408190526200005c916200053f565b82828282816200006f8282600062000089565b506200007d905082620000c6565b50505050505062000672565b620000948362000121565b600082511180620000a25750805b15620000c157620000bf83836200016360201b620002ee1760201c565b505b505050565b7f7e644d79422f17c01e4894b5f4f588d331ebfa28653d42ae832dc59e38c9798f620000f162000192565b604080516001600160a01b03928316815291841660208301520160405180910390a16200011e81620001cb565b50565b6200012c8162000280565b6040516001600160a01b038216907fbc7cd75a20ee27fd9adebab32041f755214dbc6bffa90cc0225b39da2e5c2d3b90600090a250565b60606200018b838360405180606001604052806027815260200162000fcc6027913962000334565b9392505050565b6000620001bc60008051602062000fac83398151915260001b620003b360201b620002aa1760201c565b546001600160a01b0316919050565b6001600160a01b038116620002365760405162461bcd60e51b815260206004820152602660248201527f455243313936373a206e65772061646d696e20697320746865207a65726f206160448201526564647265737360d01b60648201526084015b60405180910390fd5b806200025f60008051602062000fac83398151915260001b620003b360201b620002aa1760201c565b80546001600160a01b0319166001600160a01b039290921691909117905550565b6200029681620003b660201b6200031a1760201c565b620002fa5760405162461bcd60e51b815260206004820152602d60248201527f455243313936373a206e657720696d706c656d656e746174696f6e206973206e60448201526c1bdd08184818dbdb9d1c9858dd609a1b60648201526084016200022d565b806200025f7f360894a13ba1a3210667c828492db98dca3e2076cc3735a920a3ca505d382bbc60001b620003b360201b620002aa1760201c565b6060600080856001600160a01b0316856040516200035391906200061f565b600060405180830381855af49150503d806000811462000390576040519150601f19603f3d011682016040523d82523d6000602084013e62000395565b606091505b509092509050620003a986838387620003c5565b9695505050505050565b90565b6001600160a01b03163b151590565b606083156200043957825160000362000431576001600160a01b0385163b620004315760405162461bcd60e51b815260206004820152601d60248201527f416464726573733a2063616c6c20746f206e6f6e2d636f6e747261637400000060448201526064016200022d565b508162000445565b6200044583836200044d565b949350505050565b8151156200045e5781518083602001fd5b8060405162461bcd60e51b81526004016200022d91906200063d565b828054828255906000526020600020908101928215620004bd579160200282015b82811115620004bd578251829060ff169055916020019190600101906200049b565b50620004cb929150620004cf565b5090565b5b80821115620004cb5760008155600101620004d0565b80516001600160a01b0381168114620004fe57600080fd5b919050565b634e487b7160e01b600052604160045260246000fd5b60005b83811015620005365781810151838201526020016200051c565b50506000910152565b6000806000606084860312156200055557600080fd5b6200056084620004e6565b92506200057060208501620004e6565b60408501519092506001600160401b03808211156200058e57600080fd5b818601915086601f830112620005a357600080fd5b815181811115620005b857620005b862000503565b604051601f8201601f19908116603f01168101908382118183101715620005e357620005e362000503565b81604052828152896020848701011115620005fd57600080fd5b6200061083602083016020880162000519565b80955050505050509250925092565b600082516200063381846020870162000519565b9190910192915050565b60208152600082518060208401526200065e81604085016020870162000519565b601f01601f19169190910160400192915050565b61092a80620006826000396000f3fe6080604052600436106100595760003560e01c806306fdde03146100705780633659cfe61461009b5780634f1ef286146100bb5780635c60da1b146100ce5780638f283970146100fb578063f851a4401461011b57610068565b3661006857610066610130565b005b610066610130565b34801561007c57600080fd5b5061008561014a565b604051610092919061078a565b60405180910390f35b3480156100a757600080fd5b506100666100b63660046107d9565b6101d8565b6100666100c93660046107f4565b610215565b3480156100da57600080fd5b506100e361027c565b6040516001600160a01b039091168152602001610092565b34801561010757600080fd5b506100666101163660046107d9565b6102ad565b34801561012757600080fd5b506100e36102cd565b610138610329565b6101486101436103be565b6103c8565b565b6000805461015790610877565b80601f016020809104026020016040519081016040528092919081815260200182805461018390610877565b80156101d05780601f106101a5576101008083540402835291602001916101d0565b820191906000526020600020905b8154815290600101906020018083116101b357829003601f168201915b505050505081565b6101e06103ec565b6001600160a01b0316330361020d5761020a8160405180602001604052806000815250600061041f565b50565b61020a610130565b61021d6103ec565b6001600160a01b031633036102745761026f8383838080601f0160208091040260200160405190810160405280939291908181526020018383808284376000920191909152506001925061041f915050565b505050565b61026f610130565b60006102866103ec565b6001600160a01b031633036102a25761029d6103be565b905090565b6102aa610130565b90565b6102b56103ec565b6001600160a01b0316330361020d5761020a8161044a565b60006102d76103ec565b6001600160a01b031633036102a25761029d6103ec565b606061031383836040518060600160405280602781526020016108ce6027913961049e565b9392505050565b6001600160a01b03163b151590565b6103316103ec565b6001600160a01b031633036101485760405162461bcd60e51b815260206004820152604260248201527f5472616e73706172656e745570677261646561626c6550726f78793a2061646d60448201527f696e2063616e6e6f742066616c6c6261636b20746f2070726f78792074617267606482015261195d60f21b608482015260a4015b60405180910390fd5b600061029d610516565b3660008037600080366000845af43d6000803e8080156103e7573d6000f35b3d6000fd5b60007fb53127684a568b3173ae13b9f8a6016e243e63b6e8ee1178d6a717850b5d61035b546001600160a01b0316919050565b6104288361053e565b6000825111806104355750805b1561026f5761044483836102ee565b50505050565b7f7e644d79422f17c01e4894b5f4f588d331ebfa28653d42ae832dc59e38c9798f6104736103ec565b604080516001600160a01b03928316815291841660208301520160405180910390a161020a8161057e565b6060600080856001600160a01b0316856040516104bb91906108b1565b600060405180830381855af49150503d80600081146104f6576040519150601f19603f3d011682016040523d82523d6000602084013e6104fb565b606091505b509150915061050c86838387610627565b9695505050505050565b60007f360894a13ba1a3210667c828492db98dca3e2076cc3735a920a3ca505d382bbc610410565b610547816106a8565b6040516001600160a01b038216907fbc7cd75a20ee27fd9adebab32041f755214dbc6bffa90cc0225b39da2e5c2d3b90600090a250565b6001600160a01b0381166105e35760405162461bcd60e51b815260206004820152602660248201527f455243313936373a206e65772061646d696e20697320746865207a65726f206160448201526564647265737360d01b60648201526084016103b5565b807fb53127684a568b3173ae13b9f8a6016e243e63b6e8ee1178d6a717850b5d61035b80546001600160a01b0319166001600160a01b039290921691909117905550565b6060831561069657825160000361068f576001600160a01b0385163b61068f5760405162461bcd60e51b815260206004820152601d60248201527f416464726573733a2063616c6c20746f206e6f6e2d636f6e747261637400000060448201526064016103b5565b50816106a0565b6106a0838361073c565b949350505050565b6001600160a01b0381163b6107155760405162461bcd60e51b815260206004820152602d60248201527f455243313936373a206e657720696d706c656d656e746174696f6e206973206e60448201526c1bdd08184818dbdb9d1c9858dd609a1b60648201526084016103b5565b807f360894a13ba1a3210667c828492db98dca3e2076cc3735a920a3ca505d382bbc610606565b81511561074c5781518083602001fd5b8060405162461bcd60e51b81526004016103b5919061078a565b60005b83811015610781578181015183820152602001610769565b50506000910152565b60208152600082518060208401526107a9816040850160208701610766565b601f01601f19169190910160400192915050565b80356001600160a01b03811681146107d457600080fd5b919050565b6000602082840312156107eb57600080fd5b610313826107bd565b60008060006040848603121561080957600080fd5b610812846107bd565b9250602084013567ffffffffffffffff8082111561082f57600080fd5b818601915086601f83011261084357600080fd5b81358181111561085257600080fd5b87602082850101111561086457600080fd5b6020830194508093505050509250925092565b600181811c9082168061088b57607f821691505b6020821081036108ab57634e487b7160e01b600052602260045260246000fd5b50919050565b600082516108c3818460208701610766565b919091019291505056fe416464726573733a206c6f772d6c6576656c2064656c65676174652063616c6c206661696c6564a2646970667358221220254e4ba03a10699209d7f72bf89452bc9999ebf0e4ca0b5e07e96e787aad246264736f6c63430008120033b53127684a568b3173ae13b9f8a6016e243e63b6e8ee1178d6a717850b5d6103416464726573733a206c6f772d6c6576656c2064656c65676174652063616c6c206661696c6564",
  "devdoc": {
    "events": {
      "AdminChanged(address,address)": {
        "details": "Emitted when the admin account has changed."
      },
      "BeaconUpgraded(address)": {
        "details": "Emitted when the beacon is changed."
      },
      "Upgraded(address)": {
        "details": "Emitted when the implementation is upgraded."
      }
    },
    "kind": "dev",
    "methods": {
      "admin()": {
        "details": "Returns the current admin. NOTE: Only the admin can call this function. See {ProxyAdmin-getProxyAdmin}. TIP: To get this value clients can read directly from the storage slot shown below (specified by EIP1967) using the https://eth.wiki/json-rpc/API#eth_getstorageat[`eth_getStorageAt`] RPC call. `0xb53127684a568b3173ae13b9f8a6016e243e63b6e8ee1178d6a717850b5d6103`"
      },
      "changeAdmin(address)": {
        "details": "Changes the admin of the proxy. Emits an {AdminChanged} event. NOTE: Only the admin can call this function. See {ProxyAdmin-changeProxyAdmin}."
      },
      "implementation()": {
        "details": "Returns the current implementation. NOTE: Only the admin can call this function. See {ProxyAdmin-getProxyImplementation}. TIP: To get this value clients can read directly from the storage slot shown below (specified by EIP1967) using the https://eth.wiki/json-rpc/API#eth_getstorageat[`eth_getStorageAt`] RPC call. `0x360894a13ba1a3210667c828492db98dca3e2076cc3735a920a3ca505d382bbc`"
      },
      "upgradeTo(address)": {
        "details": "Upgrade the implementation of the proxy. NOTE: Only the admin can call this function. See {ProxyAdmin-upgrade}."
      },
      "upgradeToAndCall(address,bytes)": {
        "details": "Upgrade the implementation of the proxy, and then call a function from the new implementation as specified by `data`, which should be an encoded function call. This is useful to initialize new storage variables in the proxied contract. NOTE: Only the admin can call this function. See {ProxyAdmin-upgradeAndCall}."
      }
    },
    "version": 1
  },
  "userdoc": {
    "kind": "user",
    "methods": {},
    "version": 1
  },
  "storageLayout": {
    "storage": [
      {
        "astId": 5013,
        "contract": "contracts/proxy/MazeProxy.sol:MazeProxy",
        "label": "name",
        "offset": 0,
        "slot": "0",
        "type": "t_string_storage"
      },
      {
        "astId": 5016,
        "contract": "contracts/proxy/MazeProxy.sol:MazeProxy",
        "label": "numOfNFT",
        "offset": 0,
        "slot": "1",
        "type": "t_uint256"
      },
      {
        "astId": 5023,
        "contract": "contracts/proxy/MazeProxy.sol:MazeProxy",
        "label": "supplyCap",
        "offset": 0,
        "slot": "2",
        "type": "t_array(t_uint256)dyn_storage"
      },
      {
        "astId": 5027,
        "contract": "contracts/proxy/MazeProxy.sol:MazeProxy",
        "label": "__maze_gap",
        "offset": 0,
        "slot": "3",
        "type": "t_array(t_uint256)59_storage"
      }
    ],
    "types": {
      "t_array(t_uint256)59_storage": {
        "base": "t_uint256",
        "encoding": "inplace",
        "label": "uint256[59]",
        "numberOfBytes": "1888"
      },
      "t_array(t_uint256)dyn_storage": {
        "base": "t_uint256",
        "encoding": "dynamic_array",
        "label": "uint256[]",
        "numberOfBytes": "32"
      },
      "t_string_storage": {
        "encoding": "bytes",
        "label": "string",
        "numberOfBytes": "32"
      },
      "t_uint256": {
        "encoding": "inplace",
        "label": "uint256",
        "numberOfBytes": "32"
      }
    }
  }
}