{
  "address": "0x38925823D935CfC7D2a3B997be6C34Cb855Ee4E7",
  "abi": [
    {
      "inputs": [],
      "stateMutability": "nonpayable",
      "type": "constructor"
    },
    {
      "inputs": [],
      "name": "CanNotMintZeroNFT",
      "type": "error"
    },
    {
      "inputs": [],
      "name": "EmptyString",
      "type": "error"
    },
    {
      "inputs": [],
      "name": "NullAddress",
      "type": "error"
    },
    {
      "inputs": [
        {
          "internalType": "uint256",
          "name": "id",
          "type": "uint256"
        }
      ],
      "name": "SupplyReachedAt",
      "type": "error"
    },
    {
      "inputs": [],
      "name": "ZeroAmount",
      "type": "error"
    },
    {
      "anonymous": false,
      "inputs": [
        {
          "indexed": true,
          "internalType": "address",
          "name": "marketPlaceAddress",
          "type": "address"
        }
      ],
      "name": "AddMarketPlace",
      "type": "event"
    },
    {
      "anonymous": false,
      "inputs": [
        {
          "indexed": true,
          "internalType": "address",
          "name": "owner",
          "type": "address"
        },
        {
          "indexed": true,
          "internalType": "address",
          "name": "approved",
          "type": "address"
        },
        {
          "indexed": true,
          "internalType": "uint256",
          "name": "tokenId",
          "type": "uint256"
        }
      ],
      "name": "Approval",
      "type": "event"
    },
    {
      "anonymous": false,
      "inputs": [
        {
          "indexed": true,
          "internalType": "address",
          "name": "owner",
          "type": "address"
        },
        {
          "indexed": true,
          "internalType": "address",
          "name": "operator",
          "type": "address"
        },
        {
          "indexed": false,
          "internalType": "bool",
          "name": "approved",
          "type": "bool"
        }
      ],
      "name": "ApprovalForAll",
      "type": "event"
    },
    {
      "anonymous": false,
      "inputs": [
        {
          "indexed": false,
          "internalType": "uint256",
          "name": "_fromTokenId",
          "type": "uint256"
        },
        {
          "indexed": false,
          "internalType": "uint256",
          "name": "_toTokenId",
          "type": "uint256"
        }
      ],
      "name": "BatchMetadataUpdate",
      "type": "event"
    },
    {
      "anonymous": false,
      "inputs": [
        {
          "indexed": false,
          "internalType": "uint8",
          "name": "version",
          "type": "uint8"
        }
      ],
      "name": "Initialized",
      "type": "event"
    },
    {
      "anonymous": false,
      "inputs": [
        {
          "indexed": false,
          "internalType": "uint256",
          "name": "_tokenId",
          "type": "uint256"
        }
      ],
      "name": "MetadataUpdate",
      "type": "event"
    },
    {
      "anonymous": false,
      "inputs": [
        {
          "indexed": true,
          "internalType": "address",
          "name": "account",
          "type": "address"
        },
        {
          "indexed": true,
          "internalType": "uint256",
          "name": "numOfNFT",
          "type": "uint256"
        }
      ],
      "name": "Mint",
      "type": "event"
    },
    {
      "anonymous": false,
      "inputs": [
        {
          "indexed": false,
          "internalType": "address",
          "name": "account",
          "type": "address"
        }
      ],
      "name": "Paused",
      "type": "event"
    },
    {
      "anonymous": false,
      "inputs": [
        {
          "indexed": true,
          "internalType": "address",
          "name": "marketPlaceAddress",
          "type": "address"
        }
      ],
      "name": "RemovedMarketPlace",
      "type": "event"
    },
    {
      "anonymous": false,
      "inputs": [
        {
          "indexed": true,
          "internalType": "bytes32",
          "name": "role",
          "type": "bytes32"
        },
        {
          "indexed": true,
          "internalType": "bytes32",
          "name": "previousAdminRole",
          "type": "bytes32"
        },
        {
          "indexed": true,
          "internalType": "bytes32",
          "name": "newAdminRole",
          "type": "bytes32"
        }
      ],
      "name": "RoleAdminChanged",
      "type": "event"
    },
    {
      "anonymous": false,
      "inputs": [
        {
          "indexed": true,
          "internalType": "bytes32",
          "name": "role",
          "type": "bytes32"
        },
        {
          "indexed": true,
          "internalType": "address",
          "name": "account",
          "type": "address"
        },
        {
          "indexed": true,
          "internalType": "address",
          "name": "sender",
          "type": "address"
        }
      ],
      "name": "RoleGranted",
      "type": "event"
    },
    {
      "anonymous": false,
      "inputs": [
        {
          "indexed": true,
          "internalType": "bytes32",
          "name": "role",
          "type": "bytes32"
        },
        {
          "indexed": true,
          "internalType": "address",
          "name": "account",
          "type": "address"
        },
        {
          "indexed": true,
          "internalType": "address",
          "name": "sender",
          "type": "address"
        }
      ],
      "name": "RoleRevoked",
      "type": "event"
    },
    {
      "anonymous": false,
      "inputs": [
        {
          "indexed": false,
          "internalType": "string",
          "name": "oldURI",
          "type": "string"
        },
        {
          "indexed": false,
          "internalType": "string",
          "name": "newURI",
          "type": "string"
        }
      ],
      "name": "SetContractURI",
      "type": "event"
    },
    {
      "anonymous": false,
      "inputs": [
        {
          "indexed": false,
          "internalType": "string",
          "name": "oldURI",
          "type": "string"
        },
        {
          "indexed": false,
          "internalType": "string",
          "name": "newURI",
          "type": "string"
        }
      ],
      "name": "SetUri",
      "type": "event"
    },
    {
      "anonymous": false,
      "inputs": [
        {
          "indexed": true,
          "internalType": "address",
          "name": "from",
          "type": "address"
        },
        {
          "indexed": true,
          "internalType": "address",
          "name": "to",
          "type": "address"
        },
        {
          "indexed": true,
          "internalType": "uint256",
          "name": "tokenId",
          "type": "uint256"
        }
      ],
      "name": "Transfer",
      "type": "event"
    },
    {
      "anonymous": false,
      "inputs": [
        {
          "indexed": false,
          "internalType": "address",
          "name": "account",
          "type": "address"
        }
      ],
      "name": "Unpaused",
      "type": "event"
    },
    {
      "inputs": [],
      "name": "DEFAULT_ADMIN_ROLE",
      "outputs": [
        {
          "internalType": "bytes32",
          "name": "",
          "type": "bytes32"
        }
      ],
      "stateMutability": "view",
      "type": "function"
    },
    {
      "inputs": [],
      "name": "MANAGER_ROLE",
      "outputs": [
        {
          "internalType": "bytes32",
          "name": "",
          "type": "bytes32"
        }
      ],
      "stateMutability": "view",
      "type": "function"
    },
    {
      "inputs": [],
      "name": "OWNER_ROLE",
      "outputs": [
        {
          "internalType": "bytes32",
          "name": "",
          "type": "bytes32"
        }
      ],
      "stateMutability": "view",
      "type": "function"
    },
    {
      "inputs": [
        {
          "internalType": "address",
          "name": "marketPlaceAddress",
          "type": "address"
        }
      ],
      "name": "addMarketPlaceAddress",
      "outputs": [],
      "stateMutability": "nonpayable",
      "type": "function"
    },
    {
      "inputs": [
        {
          "internalType": "address",
          "name": "to",
          "type": "address"
        },
        {
          "internalType": "uint256",
          "name": "tokenId",
          "type": "uint256"
        }
      ],
      "name": "approve",
      "outputs": [],
      "stateMutability": "nonpayable",
      "type": "function"
    },
    {
      "inputs": [
        {
          "internalType": "address",
          "name": "owner",
          "type": "address"
        }
      ],
      "name": "balanceOf",
      "outputs": [
        {
          "internalType": "uint256",
          "name": "",
          "type": "uint256"
        }
      ],
      "stateMutability": "view",
      "type": "function"
    },
    {
      "inputs": [
        {
          "internalType": "uint256",
          "name": "tokenId",
          "type": "uint256"
        }
      ],
      "name": "burn",
      "outputs": [],
      "stateMutability": "nonpayable",
      "type": "function"
    },
    {
      "inputs": [],
      "name": "contractURI",
      "outputs": [
        {
          "internalType": "string",
          "name": "",
          "type": "string"
        }
      ],
      "stateMutability": "view",
      "type": "function"
    },
    {
      "inputs": [
        {
          "internalType": "uint256",
          "name": "tokenId",
          "type": "uint256"
        }
      ],
      "name": "getApproved",
      "outputs": [
        {
          "internalType": "address",
          "name": "",
          "type": "address"
        }
      ],
      "stateMutability": "view",
      "type": "function"
    },
    {
      "inputs": [
        {
          "internalType": "bytes32",
          "name": "role",
          "type": "bytes32"
        }
      ],
      "name": "getRoleAdmin",
      "outputs": [
        {
          "internalType": "bytes32",
          "name": "",
          "type": "bytes32"
        }
      ],
      "stateMutability": "view",
      "type": "function"
    },
    {
      "inputs": [
        {
          "internalType": "bytes32",
          "name": "role",
          "type": "bytes32"
        },
        {
          "internalType": "address",
          "name": "account",
          "type": "address"
        }
      ],
      "name": "grantRole",
      "outputs": [],
      "stateMutability": "nonpayable",
      "type": "function"
    },
    {
      "inputs": [
        {
          "internalType": "bytes32",
          "name": "role",
          "type": "bytes32"
        },
        {
          "internalType": "address",
          "name": "account",
          "type": "address"
        }
      ],
      "name": "hasRole",
      "outputs": [
        {
          "internalType": "bool",
          "name": "",
          "type": "bool"
        }
      ],
      "stateMutability": "view",
      "type": "function"
    },
    {
      "inputs": [
        {
          "internalType": "string",
          "name": "_name",
          "type": "string"
        },
        {
          "internalType": "string",
          "name": "_symbol",
          "type": "string"
        },
        {
          "internalType": "string",
          "name": "_contractURI",
          "type": "string"
        },
        {
          "internalType": "string",
          "name": "_baseUri",
          "type": "string"
        },
        {
          "internalType": "uint256",
          "name": "_supplyCap",
          "type": "uint256"
        },
        {
          "internalType": "address",
          "name": "_manager",
          "type": "address"
        },
        {
          "internalType": "address",
          "name": "_owner",
          "type": "address"
        },
        {
          "internalType": "address",
          "name": "_openSeaProxy",
          "type": "address"
        }
      ],
      "name": "initialize",
      "outputs": [],
      "stateMutability": "nonpayable",
      "type": "function"
    },
    {
      "inputs": [
        {
          "internalType": "address",
          "name": "_owner",
          "type": "address"
        },
        {
          "internalType": "address",
          "name": "_operator",
          "type": "address"
        }
      ],
      "name": "isApprovedForAll",
      "outputs": [
        {
          "internalType": "bool",
          "name": "isOperator",
          "type": "bool"
        }
      ],
      "stateMutability": "view",
      "type": "function"
    },
    {
      "inputs": [],
      "name": "name",
      "outputs": [
        {
          "internalType": "string",
          "name": "",
          "type": "string"
        }
      ],
      "stateMutability": "view",
      "type": "function"
    },
    {
      "inputs": [
        {
          "internalType": "uint256",
          "name": "tokenId",
          "type": "uint256"
        }
      ],
      "name": "ownerOf",
      "outputs": [
        {
          "internalType": "address",
          "name": "",
          "type": "address"
        }
      ],
      "stateMutability": "view",
      "type": "function"
    },
    {
      "inputs": [],
      "name": "pause",
      "outputs": [],
      "stateMutability": "nonpayable",
      "type": "function"
    },
    {
      "inputs": [],
      "name": "paused",
      "outputs": [
        {
          "internalType": "bool",
          "name": "",
          "type": "bool"
        }
      ],
      "stateMutability": "view",
      "type": "function"
    },
    {
      "inputs": [
        {
          "internalType": "address",
          "name": "marketPlaceAddress",
          "type": "address"
        }
      ],
      "name": "removeMarketPlaceAddress",
      "outputs": [],
      "stateMutability": "nonpayable",
      "type": "function"
    },
    {
      "inputs": [
        {
          "internalType": "bytes32",
          "name": "role",
          "type": "bytes32"
        },
        {
          "internalType": "address",
          "name": "account",
          "type": "address"
        }
      ],
      "name": "renounceRole",
      "outputs": [],
      "stateMutability": "nonpayable",
      "type": "function"
    },
    {
      "inputs": [
        {
          "internalType": "bytes32",
          "name": "role",
          "type": "bytes32"
        },
        {
          "internalType": "address",
          "name": "account",
          "type": "address"
        }
      ],
      "name": "revokeRole",
      "outputs": [],
      "stateMutability": "nonpayable",
      "type": "function"
    },
    {
      "inputs": [
        {
          "internalType": "uint256",
          "name": "tokenId",
          "type": "uint256"
        },
        {
          "internalType": "uint256",
          "name": "salePrice",
          "type": "uint256"
        }
      ],
      "name": "royaltyInfo",
      "outputs": [
        {
          "internalType": "address",
          "name": "",
          "type": "address"
        },
        {
          "internalType": "uint256",
          "name": "",
          "type": "uint256"
        }
      ],
      "stateMutability": "view",
      "type": "function"
    },
    {
      "inputs": [
        {
          "internalType": "uint256",
          "name": "_numOfNFT",
          "type": "uint256"
        }
      ],
      "name": "safeMint",
      "outputs": [],
      "stateMutability": "nonpayable",
      "type": "function"
    },
    {
      "inputs": [
        {
          "internalType": "address",
          "name": "from",
          "type": "address"
        },
        {
          "internalType": "address",
          "name": "to",
          "type": "address"
        },
        {
          "internalType": "uint256",
          "name": "tokenId",
          "type": "uint256"
        }
      ],
      "name": "safeTransferFrom",
      "outputs": [],
      "stateMutability": "nonpayable",
      "type": "function"
    },
    {
      "inputs": [
        {
          "internalType": "address",
          "name": "from",
          "type": "address"
        },
        {
          "internalType": "address",
          "name": "to",
          "type": "address"
        },
        {
          "internalType": "uint256",
          "name": "tokenId",
          "type": "uint256"
        },
        {
          "internalType": "bytes",
          "name": "data",
          "type": "bytes"
        }
      ],
      "name": "safeTransferFrom",
      "outputs": [],
      "stateMutability": "nonpayable",
      "type": "function"
    },
    {
      "inputs": [
        {
          "internalType": "address",
          "name": "operator",
          "type": "address"
        },
        {
          "internalType": "bool",
          "name": "approved",
          "type": "bool"
        }
      ],
      "name": "setApprovalForAll",
      "outputs": [],
      "stateMutability": "nonpayable",
      "type": "function"
    },
    {
      "inputs": [
        {
          "internalType": "string",
          "name": "_contractURI",
          "type": "string"
        }
      ],
      "name": "setContractURI",
      "outputs": [],
      "stateMutability": "nonpayable",
      "type": "function"
    },
    {
      "inputs": [
        {
          "internalType": "uint256",
          "name": "tokenId",
          "type": "uint256"
        },
        {
          "internalType": "uint96",
          "name": "_royalty",
          "type": "uint96"
        }
      ],
      "name": "setRoyalty",
      "outputs": [],
      "stateMutability": "nonpayable",
      "type": "function"
    },
    {
      "inputs": [
        {
          "internalType": "string",
          "name": "newUri",
          "type": "string"
        }
      ],
      "name": "setURI",
      "outputs": [],
      "stateMutability": "nonpayable",
      "type": "function"
    },
    {
      "inputs": [
        {
          "internalType": "bytes4",
          "name": "interfaceId",
          "type": "bytes4"
        }
      ],
      "name": "supportsInterface",
      "outputs": [
        {
          "internalType": "bool",
          "name": "",
          "type": "bool"
        }
      ],
      "stateMutability": "view",
      "type": "function"
    },
    {
      "inputs": [],
      "name": "symbol",
      "outputs": [
        {
          "internalType": "string",
          "name": "",
          "type": "string"
        }
      ],
      "stateMutability": "view",
      "type": "function"
    },
    {
      "inputs": [
        {
          "internalType": "uint256",
          "name": "tokenId",
          "type": "uint256"
        }
      ],
      "name": "tokenURI",
      "outputs": [
        {
          "internalType": "string",
          "name": "",
          "type": "string"
        }
      ],
      "stateMutability": "view",
      "type": "function"
    },
    {
      "inputs": [],
      "name": "totalSupply",
      "outputs": [
        {
          "internalType": "uint256",
          "name": "",
          "type": "uint256"
        }
      ],
      "stateMutability": "view",
      "type": "function"
    },
    {
      "inputs": [
        {
          "internalType": "address",
          "name": "from",
          "type": "address"
        },
        {
          "internalType": "address",
          "name": "to",
          "type": "address"
        },
        {
          "internalType": "uint256",
          "name": "tokenId",
          "type": "uint256"
        }
      ],
      "name": "transferFrom",
      "outputs": [],
      "stateMutability": "nonpayable",
      "type": "function"
    },
    {
      "inputs": [],
      "name": "unpause",
      "outputs": [],
      "stateMutability": "nonpayable",
      "type": "function"
    }
  ],
  "transactionHash": "0xb95e795b5e82c6b2633f4bf40cef7bac7c4976f3b7d287e25604eb908507ee90",
  "args": [],
  "numDeployments": 2,
  "solcInputHash": "56eb953e87acd2b2c8f2bd14e7549851",
  "bytecode": "0x60806040523480156200001157600080fd5b506200001c62000022565b620000e3565b600054610100900460ff16156200008f5760405162461bcd60e51b815260206004820152602760248201527f496e697469616c697a61626c653a20636f6e747261637420697320696e697469604482015266616c697a696e6760c81b606482015260840160405180910390fd5b60005460ff90811614620000e1576000805460ff191660ff9081179091556040519081527f7f26b83ff96e1f2b6a682f133852f6798a09c465da95921460cefb38474024989060200160405180910390a15b565b612c4980620000f36000396000f3fe608060405234801561001057600080fd5b50600436106102115760003560e01c80636352211e11610125578063a22cb465116100ad578063d547741f1161007c578063d547741f14610482578063e58378bb14610495578063e8a3d485146104aa578063e985e9c5146104b2578063ec87621c146104c557600080fd5b8063a22cb46514610436578063a43c9d9a14610449578063b88d4fde1461045c578063c87b56dd1461046f57600080fd5b806391d14854116100f457806391d14854146103ed578063938e3d7b1461040057806395d89b4114610413578063a09796eb1461041b578063a217fddf1461042e57600080fd5b80636352211e146103ac57806370a08231146103bf5780637f45a16d146103d25780638456cb59146103e557600080fd5b80632a1b06b9116101a857806336568abe1161017757806336568abe146103605780633f4ba83a1461037357806342842e0e1461037b57806342966c681461038e5780635c975abb146103a157600080fd5b80632a1b06b9146102f55780632a55205a146103085780632f2ff15d1461033a57806331c864e81461034d57600080fd5b8063095ea7b3116101e4578063095ea7b31461029357806318160ddd146102a657806323b872dd146102be578063248a9ca3146102d157600080fd5b806301ffc9a71461021657806302fe53051461023e57806306fdde0314610253578063081812fc14610268575b600080fd5b6102296102243660046122a6565b6104da565b60405190151581526020015b60405180910390f35b61025161024c36600461236f565b6104eb565b005b61025b610574565b60405161023591906123f4565b61027b610276366004612407565b610606565b6040516001600160a01b039091168152602001610235565b6102516102a136600461243c565b61062d565b6102b06101c55481565b604051908152602001610235565b6102516102cc366004612466565b610747565b6102b06102df366004612407565b6000908152610191602052604090206001015490565b6102516103033660046124a2565b610779565b61031b61031636600461258b565b6109a4565b604080516001600160a01b039093168352602083019190915201610235565b6102516103483660046125ad565b610a50565b61025161035b366004612407565b610a76565b61025161036e3660046125ad565b610b5b565b610251610bd9565b610251610389366004612466565b610bfc565b61025161039c366004612407565b610c17565b60fb5460ff16610229565b61027b6103ba366004612407565b610c45565b6102b06103cd3660046125d9565b610ca5565b6102516103e03660046125f4565b610d2b565b610251610d65565b6102296103fb3660046125ad565b610d85565b61025161040e36600461236f565b610db1565b61025b610e34565b6102516104293660046125d9565b610e43565b6102b0600081565b610251610444366004612630565b610ecf565b6102516104573660046125d9565b610eda565b61025161046a366004612661565b610f69565b61025b61047d366004612407565b610f9b565b6102516104903660046125ad565b610fcc565b6102b0600080516020612bf483398151915281565b61025b610ff2565b6102296104c03660046126dd565b611081565b6102b0600080516020612bd483398151915281565b60006104e5826110dc565b92915050565b600080516020612bd483398151915261050381611101565b8180516000036105265760405163ecd7b0d160e01b815260040160405180910390fd5b7f8da7b6c8c3ef53c2eea949737a70f2329e9c459df254435a5bdc28fbb44ef7906101c484604051610559929190612741565b60405180910390a16101c461056e848261282e565b50505050565b60606097805461058390612707565b80601f01602080910402602001604051908101604052809291908181526020018280546105af90612707565b80156105fc5780601f106105d1576101008083540402835291602001916105fc565b820191906000526020600020905b8154815290600101906020018083116105df57829003601f168201915b5050505050905090565b60006106118261110b565b506000908152609b60205260409020546001600160a01b031690565b600061063882610c45565b9050806001600160a01b0316836001600160a01b0316036106aa5760405162461bcd60e51b815260206004820152602160248201527f4552433732313a20617070726f76616c20746f2063757272656e74206f776e656044820152603960f91b60648201526084015b60405180910390fd5b336001600160a01b03821614806106c657506106c68133611081565b6107385760405162461bcd60e51b815260206004820152603d60248201527f4552433732313a20617070726f76652063616c6c6572206973206e6f7420746f60448201527f6b656e206f776e6572206f7220617070726f76656420666f7220616c6c00000060648201526084016106a1565b610742838361116a565b505050565b610752335b826111d8565b61076e5760405162461bcd60e51b81526004016106a1906128ee565b610742838383611237565b600054610100900460ff16158080156107995750600054600160ff909116105b806107b35750303b1580156107b3575060005460ff166001145b6108165760405162461bcd60e51b815260206004820152602e60248201527f496e697469616c697a61626c653a20636f6e747261637420697320616c72656160448201526d191e481a5b9a5d1a585b1a5e995960921b60648201526084016106a1565b6000805460ff191660011790558015610839576000805461ff0019166101001790555b85805160000361085c5760405163ecd7b0d160e01b815260040160405180910390fd5b846001600160a01b0381166108845760405163e99d5ac560e01b815260040160405180910390fd5b846001600160a01b0381166108ac5760405163e99d5ac560e01b815260040160405180910390fd5b6108b68c8c6113a8565b6108be6113d9565b6108c6611402565b6108ce6113d9565b6108d9600033611431565b6108f1600080516020612bd483398151915288611431565b610909600080516020612bf483398151915287611431565b6101c36109168b8261282e565b506101c58890556101c461092a8a8261282e565b506101c680546001600160a01b0319166001600160a01b03881617905561095085610eda565b5050508015610999576000805461ff0019169055604051600181527f7f26b83ff96e1f2b6a682f133852f6798a09c465da95921460cefb38474024989060200160405180910390a15b505050505050505050565b60008281526066602090815260408083208151808301909252546001600160a01b038116808352600160a01b9091046001600160601b0316928201929092528291610a195750604080518082019091526065546001600160a01b0381168252600160a01b90046001600160601b031660208201525b602081015160009061271090610a38906001600160601b031687612951565b610a429190612968565b915196919550909350505050565b60008281526101916020526040902060010154610a6c81611101565b6107428383611431565b600080516020612bf4833981519152610a8e81611101565b81600003610aaf576040516329e1b86f60e01b815260040160405180910390fd5b6000610abb6101c85490565b90506000610ac9848361298a565b90506101c554811115610af25760405163245b381760e11b8152600481018290526024016106a1565b60005b84811015610b2757610b0c6101c880546001019055565b610b1f33610b1a6101c85490565b6114b8565b600101610af5565b50604051849033907f0f6798a560793a54c3bcfe86a93cde1e73087d944c0ea20544137d412139688590600090a350505050565b6001600160a01b0381163314610bcb5760405162461bcd60e51b815260206004820152602f60248201527f416363657373436f6e74726f6c3a2063616e206f6e6c792072656e6f756e636560448201526e103937b632b9903337b91039b2b63360891b60648201526084016106a1565b610bd582826114d2565b5050565b600080516020612bd4833981519152610bf181611101565b610bf961153a565b50565b61074283838360405180602001604052806000815250610f69565b610c203361074c565b610c3c5760405162461bcd60e51b81526004016106a1906128ee565b610bf98161158c565b6000818152609960205260408120546001600160a01b0316806104e55760405162461bcd60e51b8152602060048201526018602482015277115490cdcc8c4e881a5b9d985b1a59081d1bdad95b88125160421b60448201526064016106a1565b60006001600160a01b038216610d0f5760405162461bcd60e51b815260206004820152602960248201527f4552433732313a2061646472657373207a65726f206973206e6f7420612076616044820152683634b21037bbb732b960b91b60648201526084016106a1565b506001600160a01b03166000908152609a602052604090205490565b600080516020612bf4833981519152610d4381611101565b610d4c8361110b565b6101c6546107429084906001600160a01b0316846115a6565b600080516020612bd4833981519152610d7d81611101565b610bf96116b4565b6000918252610191602090815260408084206001600160a01b0393909316845291905290205460ff1690565b808051600003610dd45760405163ecd7b0d160e01b815260040160405180910390fd5b600080516020612bd4833981519152610dec81611101565b7f89e5b6f07571941ef88c704155a3557ef26b4fd73f9c2c18294de8e767dda34d6101c384604051610e1f929190612741565b60405180910390a16101c361056e848261282e565b60606098805461058390612707565b600080516020612bd4833981519152610e5b81611101565b816001600160a01b038116610e835760405163e99d5ac560e01b815260040160405180910390fd5b6001600160a01b03831660008181526101c76020526040808220805460ff19169055517f370ef989c014e5f3a1c3945a6feef6df84146c388feef2e217c78c50a99a18f29190a2505050565b610bd53383836116f1565b600080516020612bd4833981519152610ef281611101565b816001600160a01b038116610f1a5760405163e99d5ac560e01b815260040160405180910390fd5b6001600160a01b03831660008181526101c76020526040808220805460ff19166001179055517f2ac1f4b89eebc996ccd2e9f3b365822ee62367c2f71b630ea565e7ff8231de819190a2505050565b610f7333836111d8565b610f8f5760405162461bcd60e51b81526004016106a1906128ee565b61056e848484846117bf565b6060610fa6826117f2565b604051602001610fb6919061299d565b6040516020818303038152906040529050919050565b60008281526101916020526040902060010154610fe881611101565b61074283836114d2565b6101c3805461100090612707565b80601f016020809104026020016040519081016040528092919081815260200182805461102c90612707565b80156110795780601f1061104e57610100808354040283529160200191611079565b820191906000526020600020905b81548152906001019060200180831161105c57829003601f168201915b505050505081565b6001600160a01b03811660009081526101c7602052604081205460ff16156110ab575060016104e5565b6001600160a01b038084166000908152609c602090815260408083209386168352929052205460ff165b9392505050565b60006001600160e01b03198216637965db0b60e01b14806104e557506104e5826118ed565b610bf981336118f8565b6000818152609960205260409020546001600160a01b0316610bf95760405162461bcd60e51b8152602060048201526018602482015277115490cdcc8c4e881a5b9d985b1a59081d1bdad95b88125160421b60448201526064016106a1565b6000818152609b6020526040902080546001600160a01b0319166001600160a01b038416908117909155819061119f82610c45565b6001600160a01b03167f8c5be1e5ebec7d5bd14f71427d1e84f3dd0314c0f7b2291e5b200ac8c7c3b92560405160405180910390a45050565b6000806111e483610c45565b9050806001600160a01b0316846001600160a01b0316148061120b575061120b8185611081565b8061122f5750836001600160a01b031661122484610606565b6001600160a01b0316145b949350505050565b826001600160a01b031661124a82610c45565b6001600160a01b0316146112705760405162461bcd60e51b81526004016106a1906129c6565b6001600160a01b0382166112d25760405162461bcd60e51b8152602060048201526024808201527f4552433732313a207472616e7366657220746f20746865207a65726f206164646044820152637265737360e01b60648201526084016106a1565b6112df8383836001611951565b826001600160a01b03166112f282610c45565b6001600160a01b0316146113185760405162461bcd60e51b81526004016106a1906129c6565b6000818152609b6020908152604080832080546001600160a01b03199081169091556001600160a01b03878116808652609a8552838620805460001901905590871680865283862080546001019055868652609990945282852080549092168417909155905184937fddf252ad1be2c89b69c2b068fc378daa952ba7f163c4a11628f55a4df523b3ef91a4505050565b600054610100900460ff166113cf5760405162461bcd60e51b81526004016106a190612a0b565b610bd5828261195e565b600054610100900460ff166114005760405162461bcd60e51b81526004016106a190612a0b565b565b600054610100900460ff166114295760405162461bcd60e51b81526004016106a190612a0b565b61140061199e565b61143b8282610d85565b610bd5576000828152610191602090815260408083206001600160a01b03851684529091529020805460ff191660011790556114743390565b6001600160a01b0316816001600160a01b0316837f2f8788117e7eff1d82e926ec794901d17c78024a50270940304540a733656f0d60405160405180910390a45050565b610bd58282604051806020016040528060008152506119d1565b6114dc8282610d85565b15610bd5576000828152610191602090815260408083206001600160a01b0385168085529252808320805460ff1916905551339285917ff6391f5c32d9c69d2a47ea670b442974b53935d1edc7fd64eb21e047a839171b9190a45050565b611542611a04565b60fb805460ff191690557f5db9ee0a495bf2e6ff9c91a7834c1ba4fdd244a5e8aa4e537bd38aeae4b073aa335b6040516001600160a01b03909116815260200160405180910390a1565b61159581611a4d565b600090815260666020526040812055565b6127106001600160601b03821611156116145760405162461bcd60e51b815260206004820152602a60248201527f455243323938313a20726f79616c7479206665652077696c6c206578636565646044820152692073616c65507269636560b01b60648201526084016106a1565b6001600160a01b03821661166a5760405162461bcd60e51b815260206004820152601b60248201527f455243323938313a20496e76616c696420706172616d6574657273000000000060448201526064016106a1565b6040805180820182526001600160a01b0393841681526001600160601b0392831660208083019182526000968752606690529190942093519051909116600160a01b029116179055565b6116bc611a56565b60fb805460ff191660011790557f62e78cea01bee320cd4e420270b5ea74000d11b0c9f74754ebdbfc544b05a25861156f3390565b816001600160a01b0316836001600160a01b0316036117525760405162461bcd60e51b815260206004820152601960248201527f4552433732313a20617070726f766520746f2063616c6c65720000000000000060448201526064016106a1565b6001600160a01b038381166000818152609c6020908152604080832094871680845294825291829020805460ff191686151590811790915591519182527f17307eab39ab6107e8899845ad3d59bd9653f200f220920489ca2b5937696c31910160405180910390a3505050565b6117ca848484611237565b6117d684848484611a9c565b61056e5760405162461bcd60e51b81526004016106a190612a56565b60606117fd8261110b565b600082815260c960205260408120805461181690612707565b80601f016020809104026020016040519081016040528092919081815260200182805461184290612707565b801561188f5780601f106118645761010080835404028352916020019161188f565b820191906000526020600020905b81548152906001019060200180831161187257829003601f168201915b5050505050905060006118a0611b9d565b905080516000036118b2575092915050565b8151156118e45780826040516020016118cc929190612aa8565b60405160208183030381529060405292505050919050565b61122f84611bad565b60006104e582611c13565b6119028282610d85565b610bd55761190f81611c38565b61191a836020611c4a565b60405160200161192b929190612ad7565b60408051601f198184030181529082905262461bcd60e51b82526106a1916004016123f4565b611959611a56565b61056e565b600054610100900460ff166119855760405162461bcd60e51b81526004016106a190612a0b565b6097611991838261282e565b506098610742828261282e565b600054610100900460ff166119c55760405162461bcd60e51b81526004016106a190612a0b565b60fb805460ff19169055565b6119db8383611de6565b6119e86000848484611a9c565b6107425760405162461bcd60e51b81526004016106a190612a56565b60fb5460ff166114005760405162461bcd60e51b815260206004820152601460248201527314185d5cd8589b194e881b9bdd081c185d5cd95960621b60448201526064016106a1565b61159581611f7f565b60fb5460ff16156114005760405162461bcd60e51b815260206004820152601060248201526f14185d5cd8589b194e881c185d5cd95960821b60448201526064016106a1565b60006001600160a01b0384163b15611b9257604051630a85bd0160e11b81526001600160a01b0385169063150b7a0290611ae0903390899088908890600401612b4c565b6020604051808303816000875af1925050508015611b1b575060408051601f3d908101601f19168201909252611b1891810190612b89565b60015b611b78573d808015611b49576040519150601f19603f3d011682016040523d82523d6000602084013e611b4e565b606091505b508051600003611b705760405162461bcd60e51b81526004016106a190612a56565b805181602001fd5b6001600160e01b031916630a85bd0160e11b14905061122f565b506001949350505050565b60606101c4805461058390612707565b6060611bb88261110b565b6000611bc2611b9d565b90506000815111611be257604051806020016040528060008152506110d5565b80611bec84611fbf565b604051602001611bfd929190612aa8565b6040516020818303038152906040529392505050565b60006001600160e01b03198216632483248360e11b14806104e557506104e582612052565b60606104e56001600160a01b03831660145b60606000611c59836002612951565b611c6490600261298a565b67ffffffffffffffff811115611c7c57611c7c6122c3565b6040519080825280601f01601f191660200182016040528015611ca6576020820181803683370190505b509050600360fc1b81600081518110611cc157611cc1612ba6565b60200101906001600160f81b031916908160001a905350600f60fb1b81600181518110611cf057611cf0612ba6565b60200101906001600160f81b031916908160001a9053506000611d14846002612951565b611d1f90600161298a565b90505b6001811115611d97576f181899199a1a9b1b9c1cb0b131b232b360811b85600f1660108110611d5357611d53612ba6565b1a60f81b828281518110611d6957611d69612ba6565b60200101906001600160f81b031916908160001a90535060049490941c93611d9081612bbc565b9050611d22565b5083156110d55760405162461bcd60e51b815260206004820181905260248201527f537472696e67733a20686578206c656e67746820696e73756666696369656e7460448201526064016106a1565b6001600160a01b038216611e3c5760405162461bcd60e51b815260206004820181905260248201527f4552433732313a206d696e7420746f20746865207a65726f206164647265737360448201526064016106a1565b6000818152609960205260409020546001600160a01b031615611ea15760405162461bcd60e51b815260206004820152601c60248201527f4552433732313a20746f6b656e20616c7265616479206d696e7465640000000060448201526064016106a1565b611eaf600083836001611951565b6000818152609960205260409020546001600160a01b031615611f145760405162461bcd60e51b815260206004820152601c60248201527f4552433732313a20746f6b656e20616c7265616479206d696e7465640000000060448201526064016106a1565b6001600160a01b0382166000818152609a6020908152604080832080546001019055848352609990915280822080546001600160a01b0319168417905551839291907fddf252ad1be2c89b69c2b068fc378daa952ba7f163c4a11628f55a4df523b3ef908290a45050565b611f8881612092565b600081815260c9602052604090208054611fa190612707565b159050610bf957600081815260c960205260408120610bf991612242565b60606000611fcc83612135565b600101905060008167ffffffffffffffff811115611fec57611fec6122c3565b6040519080825280601f01601f191660200182016040528015612016576020820181803683370190505b5090508181016020015b600019016f181899199a1a9b1b9c1cb0b131b232b360811b600a86061a8153600a850494508461202057509392505050565b60006001600160e01b031982166380ac58cd60e01b148061208357506001600160e01b03198216635b5e139f60e01b145b806104e557506104e58261220d565b600061209d82610c45565b90506120ad816000846001611951565b6120b682610c45565b6000838152609b6020908152604080832080546001600160a01b03199081169091556001600160a01b038516808552609a845282852080546000190190558785526099909352818420805490911690555192935084927fddf252ad1be2c89b69c2b068fc378daa952ba7f163c4a11628f55a4df523b3ef908390a45050565b60008072184f03e93ff9f4daa797ed6e38ed64bf6a1f0160401b83106121745772184f03e93ff9f4daa797ed6e38ed64bf6a1f0160401b830492506040015b6d04ee2d6d415b85acef810000000083106121a0576d04ee2d6d415b85acef8100000000830492506020015b662386f26fc1000083106121be57662386f26fc10000830492506010015b6305f5e10083106121d6576305f5e100830492506008015b61271083106121ea57612710830492506004015b606483106121fc576064830492506002015b600a83106104e55760010192915050565b60006001600160e01b0319821663152a902d60e11b14806104e557506301ffc9a760e01b6001600160e01b03198316146104e5565b50805461224e90612707565b6000825580601f1061225e575050565b601f016020900490600052602060002090810190610bf991905b8082111561228c5760008155600101612278565b5090565b6001600160e01b031981168114610bf957600080fd5b6000602082840312156122b857600080fd5b81356110d581612290565b634e487b7160e01b600052604160045260246000fd5b600067ffffffffffffffff808411156122f4576122f46122c3565b604051601f8501601f19908116603f0116810190828211818310171561231c5761231c6122c3565b8160405280935085815286868601111561233557600080fd5b858560208301376000602087830101525050509392505050565b600082601f83011261236057600080fd5b6110d5838335602085016122d9565b60006020828403121561238157600080fd5b813567ffffffffffffffff81111561239857600080fd5b61122f8482850161234f565b60005b838110156123bf5781810151838201526020016123a7565b50506000910152565b600081518084526123e08160208601602086016123a4565b601f01601f19169290920160200192915050565b6020815260006110d560208301846123c8565b60006020828403121561241957600080fd5b5035919050565b80356001600160a01b038116811461243757600080fd5b919050565b6000806040838503121561244f57600080fd5b61245883612420565b946020939093013593505050565b60008060006060848603121561247b57600080fd5b61248484612420565b925061249260208501612420565b9150604084013590509250925092565b600080600080600080600080610100898b0312156124bf57600080fd5b883567ffffffffffffffff808211156124d757600080fd5b6124e38c838d0161234f565b995060208b01359150808211156124f957600080fd5b6125058c838d0161234f565b985060408b013591508082111561251b57600080fd5b6125278c838d0161234f565b975060608b013591508082111561253d57600080fd5b5061254a8b828c0161234f565b9550506080890135935061256060a08a01612420565b925061256e60c08a01612420565b915061257c60e08a01612420565b90509295985092959890939650565b6000806040838503121561259e57600080fd5b50508035926020909101359150565b600080604083850312156125c057600080fd5b823591506125d060208401612420565b90509250929050565b6000602082840312156125eb57600080fd5b6110d582612420565b6000806040838503121561260757600080fd5b8235915060208301356001600160601b038116811461262557600080fd5b809150509250929050565b6000806040838503121561264357600080fd5b61264c83612420565b91506020830135801515811461262557600080fd5b6000806000806080858703121561267757600080fd5b61268085612420565b935061268e60208601612420565b925060408501359150606085013567ffffffffffffffff8111156126b157600080fd5b8501601f810187136126c257600080fd5b6126d1878235602084016122d9565b91505092959194509250565b600080604083850312156126f057600080fd5b6126f983612420565b91506125d060208401612420565b600181811c9082168061271b57607f821691505b60208210810361273b57634e487b7160e01b600052602260045260246000fd5b50919050565b60408152600080845461275381612707565b8060408601526060600180841660008114612775576001811461278f576127c0565b60ff1985168884015283151560051b8801830195506127c0565b8960005260208060002060005b868110156127b75781548b820187015290840190820161279c565b8a018501975050505b505050505082810360208401526127d781856123c8565b95945050505050565b601f82111561074257600081815260208120601f850160051c810160208610156128075750805b601f850160051c820191505b8181101561282657828155600101612813565b505050505050565b815167ffffffffffffffff811115612848576128486122c3565b61285c816128568454612707565b846127e0565b602080601f83116001811461289157600084156128795750858301515b600019600386901b1c1916600185901b178555612826565b600085815260208120601f198616915b828110156128c0578886015182559484019460019091019084016128a1565b50858210156128de5787850151600019600388901b60f8161c191681555b5050505050600190811b01905550565b6020808252602d908201527f4552433732313a2063616c6c6572206973206e6f7420746f6b656e206f776e6560408201526c1c881bdc88185c1c1c9bdd9959609a1b606082015260800190565b634e487b7160e01b600052601160045260246000fd5b80820281158282048414176104e5576104e561293b565b60008261298557634e487b7160e01b600052601260045260246000fd5b500490565b808201808211156104e5576104e561293b565b600082516129af8184602087016123a4565b64173539b7b760d91b920191825250600501919050565b60208082526025908201527f4552433732313a207472616e736665722066726f6d20696e636f72726563742060408201526437bbb732b960d91b606082015260800190565b6020808252602b908201527f496e697469616c697a61626c653a20636f6e7472616374206973206e6f74206960408201526a6e697469616c697a696e6760a81b606082015260800190565b60208082526032908201527f4552433732313a207472616e7366657220746f206e6f6e20455243373231526560408201527131b2b4bb32b91034b6b83632b6b2b73a32b960711b606082015260800190565b60008351612aba8184602088016123a4565b835190830190612ace8183602088016123a4565b01949350505050565b7f416363657373436f6e74726f6c3a206163636f756e7420000000000000000000815260008351612b0f8160178501602088016123a4565b7001034b99036b4b9b9b4b733903937b6329607d1b6017918401918201528351612b408160288401602088016123a4565b01602801949350505050565b6001600160a01b0385811682528416602082015260408101839052608060608201819052600090612b7f908301846123c8565b9695505050505050565b600060208284031215612b9b57600080fd5b81516110d581612290565b634e487b7160e01b600052603260045260246000fd5b600081612bcb57612bcb61293b565b50600019019056feaf290d8680820aad922855f39b306097b20e28774d6c1ad35a20325630c3a02c6270edb7c868f86fda4adedba75108201087268ea345934db8bad688e1feb91ba26469706673582212208fb48ae09f4b0db08471d90b41d1e30bb05d3270b7e478c7844986e165e6f66864736f6c63430008120033",
  "devdoc": {
    "events": {
      "Approval(address,address,uint256)": {
        "details": "Emitted when `owner` enables `approved` to manage the `tokenId` token."
      },
      "ApprovalForAll(address,address,bool)": {
        "details": "Emitted when `owner` enables or disables (`approved`) `operator` to manage all of its assets."
      },
      "BatchMetadataUpdate(uint256,uint256)": {
        "details": "This event emits when the metadata of a range of tokens is changed. So that the third-party platforms such as NFT market could timely update the images and related attributes of the NFTs."
      },
      "Initialized(uint8)": {
        "details": "Triggered when the contract has been initialized or reinitialized."
      },
      "MetadataUpdate(uint256)": {
        "details": "This event emits when the metadata of a token is changed. So that the third-party platforms such as NFT market could timely update the images and related attributes of the NFT."
      },
      "Paused(address)": {
        "details": "Emitted when the pause is triggered by `account`."
      },
      "RoleAdminChanged(bytes32,bytes32,bytes32)": {
        "details": "Emitted when `newAdminRole` is set as ``role``'s admin role, replacing `previousAdminRole` `DEFAULT_ADMIN_ROLE` is the starting admin for all roles, despite {RoleAdminChanged} not being emitted signaling this. _Available since v3.1._"
      },
      "RoleGranted(bytes32,address,address)": {
        "details": "Emitted when `account` is granted `role`. `sender` is the account that originated the contract call, an admin role bearer except when using {AccessControl-_setupRole}."
      },
      "RoleRevoked(bytes32,address,address)": {
        "details": "Emitted when `account` is revoked `role`. `sender` is the account that originated the contract call:   - if using `revokeRole`, it is the admin role bearer   - if using `renounceRole`, it is the role bearer (i.e. `account`)"
      },
      "Transfer(address,address,uint256)": {
        "details": "Emitted when `tokenId` token is transferred from `from` to `to`."
      },
      "Unpaused(address)": {
        "details": "Emitted when the pause is lifted by `account`."
      }
    },
    "kind": "dev",
    "methods": {
      "approve(address,uint256)": {
        "details": "See {IERC721-approve}."
      },
      "balanceOf(address)": {
        "details": "See {IERC721-balanceOf}."
      },
      "burn(uint256)": {
        "details": "Burns `tokenId`. See {ERC721-_burn}. Requirements: - The caller must own `tokenId` or be an approved operator."
      },
      "constructor": {
        "custom:oz-upgrades-unsafe-allow": "constructor"
      },
      "getApproved(uint256)": {
        "details": "See {IERC721-getApproved}."
      },
      "getRoleAdmin(bytes32)": {
        "details": "Returns the admin role that controls `role`. See {grantRole} and {revokeRole}. To change a role's admin, use {_setRoleAdmin}."
      },
      "grantRole(bytes32,address)": {
        "details": "Grants `role` to `account`. If `account` had not been already granted `role`, emits a {RoleGranted} event. Requirements: - the caller must have ``role``'s admin role. May emit a {RoleGranted} event."
      },
      "hasRole(bytes32,address)": {
        "details": "Returns `true` if `account` has been granted `role`."
      },
      "initialize(string,string,string,string,uint256,address,address,address)": {
        "details": "Initializes the contract with required parameters",
        "params": {
          "_baseUri": "The base URI for the NFTs",
          "_contractURI": "The URI for the contract metadata",
          "_manager": "The address of the contract manager",
          "_name": "The name of the NFT contract",
          "_owner": "The address of the contract owner",
          "_supplyCap": "The total supply cap of the NFTs",
          "_symbol": "The symbol of the NFT contract"
        }
      },
      "isApprovedForAll(address,address)": {
        "details": "Checks if the operator is approved for all tokens of the owner",
        "params": {
          "_operator": "The operator",
          "_owner": "The owner of the tokens"
        },
        "returns": {
          "isOperator": "Whether the operator is approved"
        }
      },
      "name()": {
        "details": "See {IERC721Metadata-name}."
      },
      "ownerOf(uint256)": {
        "details": "See {IERC721-ownerOf}."
      },
      "pause()": {
        "details": "Pauses the contract"
      },
      "paused()": {
        "details": "Returns true if the contract is paused, and false otherwise."
      },
      "removeMarketPlaceAddress(address)": {
        "details": "Remove an approved marketplace contract address",
        "params": {
          "marketPlaceAddress": "The address of the marketplace contract"
        }
      },
      "renounceRole(bytes32,address)": {
        "details": "Revokes `role` from the calling account. Roles are often managed via {grantRole} and {revokeRole}: this function's purpose is to provide a mechanism for accounts to lose their privileges if they are compromised (such as when a trusted device is misplaced). If the calling account had been revoked `role`, emits a {RoleRevoked} event. Requirements: - the caller must be `account`. May emit a {RoleRevoked} event."
      },
      "revokeRole(bytes32,address)": {
        "details": "Revokes `role` from `account`. If `account` had been granted `role`, emits a {RoleRevoked} event. Requirements: - the caller must have ``role``'s admin role. May emit a {RoleRevoked} event."
      },
      "royaltyInfo(uint256,uint256)": {
        "details": "Returns how much royalty is owed and to whom, based on a sale price that may be denominated in any unit of exchange. The royalty amount is denominated and should be paid in that same unit of exchange."
      },
      "safeMint(uint256)": {
        "details": "Safely mints NFTs",
        "params": {
          "_numOfNFT": "The number of NFTs to mint"
        }
      },
      "safeTransferFrom(address,address,uint256)": {
        "details": "See {IERC721-safeTransferFrom}."
      },
      "safeTransferFrom(address,address,uint256,bytes)": {
        "details": "See {IERC721-safeTransferFrom}."
      },
      "setApprovalForAll(address,bool)": {
        "details": "See {IERC721-setApprovalForAll}."
      },
      "setContractURI(string)": {
        "details": "Retrieves the base URI for the NFTs"
      },
      "setURI(string)": {
        "details": "Sets the URI for the NFTs",
        "params": {
          "newUri": "The new base URI for the NFTs"
        }
      },
      "symbol()": {
        "details": "See {IERC721Metadata-symbol}."
      },
      "transferFrom(address,address,uint256)": {
        "details": "See {IERC721-transferFrom}."
      },
      "unpause()": {
        "details": "Unpauses the contract"
      }
    },
    "version": 1
  },
  "userdoc": {
    "kind": "user",
    "methods": {
      "setRoyalty(uint256,uint96)": {
        "notice": "Function to set royalty per tokenId - This does not work for Opensea -Just for other market places Can only be called by the DEFAULT_ADMIN_ROLE "
      }
    },
    "version": 1
  },
  "storageLayout": {
    "storage": [
      {
        "astId": 462,
        "contract": "contracts/MazeNFT.sol:SD2023",
        "label": "_initialized",
        "offset": 0,
        "slot": "0",
        "type": "t_uint8"
      },
      {
        "astId": 465,
        "contract": "contracts/MazeNFT.sol:SD2023",
        "label": "_initializing",
        "offset": 1,
        "slot": "0",
        "type": "t_bool"
      },
      {
        "astId": 2745,
        "contract": "contracts/MazeNFT.sol:SD2023",
        "label": "__gap",
        "offset": 0,
        "slot": "1",
        "type": "t_array(t_uint256)50_storage"
      },
      {
        "astId": 3092,
        "contract": "contracts/MazeNFT.sol:SD2023",
        "label": "__gap",
        "offset": 0,
        "slot": "51",
        "type": "t_array(t_uint256)50_storage"
      },
      {
        "astId": 2188,
        "contract": "contracts/MazeNFT.sol:SD2023",
        "label": "_defaultRoyaltyInfo",
        "offset": 0,
        "slot": "101",
        "type": "t_struct(RoyaltyInfo)2185_storage"
      },
      {
        "astId": 2193,
        "contract": "contracts/MazeNFT.sol:SD2023",
        "label": "_tokenRoyaltyInfo",
        "offset": 0,
        "slot": "102",
        "type": "t_mapping(t_uint256,t_struct(RoyaltyInfo)2185_storage)"
      },
      {
        "astId": 2373,
        "contract": "contracts/MazeNFT.sol:SD2023",
        "label": "__gap",
        "offset": 0,
        "slot": "103",
        "type": "t_array(t_uint256)48_storage"
      },
      {
        "astId": 780,
        "contract": "contracts/MazeNFT.sol:SD2023",
        "label": "_name",
        "offset": 0,
        "slot": "151",
        "type": "t_string_storage"
      },
      {
        "astId": 782,
        "contract": "contracts/MazeNFT.sol:SD2023",
        "label": "_symbol",
        "offset": 0,
        "slot": "152",
        "type": "t_string_storage"
      },
      {
        "astId": 786,
        "contract": "contracts/MazeNFT.sol:SD2023",
        "label": "_owners",
        "offset": 0,
        "slot": "153",
        "type": "t_mapping(t_uint256,t_address)"
      },
      {
        "astId": 790,
        "contract": "contracts/MazeNFT.sol:SD2023",
        "label": "_balances",
        "offset": 0,
        "slot": "154",
        "type": "t_mapping(t_address,t_uint256)"
      },
      {
        "astId": 794,
        "contract": "contracts/MazeNFT.sol:SD2023",
        "label": "_tokenApprovals",
        "offset": 0,
        "slot": "155",
        "type": "t_mapping(t_uint256,t_address)"
      },
      {
        "astId": 800,
        "contract": "contracts/MazeNFT.sol:SD2023",
        "label": "_operatorApprovals",
        "offset": 0,
        "slot": "156",
        "type": "t_mapping(t_address,t_mapping(t_address,t_bool))"
      },
      {
        "astId": 1702,
        "contract": "contracts/MazeNFT.sol:SD2023",
        "label": "__gap",
        "offset": 0,
        "slot": "157",
        "type": "t_array(t_uint256)44_storage"
      },
      {
        "astId": 1984,
        "contract": "contracts/MazeNFT.sol:SD2023",
        "label": "_tokenURIs",
        "offset": 0,
        "slot": "201",
        "type": "t_mapping(t_uint256,t_string_storage)"
      },
      {
        "astId": 2128,
        "contract": "contracts/MazeNFT.sol:SD2023",
        "label": "__gap",
        "offset": 0,
        "slot": "202",
        "type": "t_array(t_uint256)49_storage"
      },
      {
        "astId": 645,
        "contract": "contracts/MazeNFT.sol:SD2023",
        "label": "_paused",
        "offset": 0,
        "slot": "251",
        "type": "t_bool"
      },
      {
        "astId": 750,
        "contract": "contracts/MazeNFT.sol:SD2023",
        "label": "__gap",
        "offset": 0,
        "slot": "252",
        "type": "t_array(t_uint256)49_storage"
      },
      {
        "astId": 1886,
        "contract": "contracts/MazeNFT.sol:SD2023",
        "label": "__gap",
        "offset": 0,
        "slot": "301",
        "type": "t_array(t_uint256)50_storage"
      },
      {
        "astId": 1952,
        "contract": "contracts/MazeNFT.sol:SD2023",
        "label": "__gap",
        "offset": 0,
        "slot": "351",
        "type": "t_array(t_uint256)50_storage"
      },
      {
        "astId": 39,
        "contract": "contracts/MazeNFT.sol:SD2023",
        "label": "_roles",
        "offset": 0,
        "slot": "401",
        "type": "t_mapping(t_bytes32,t_struct(RoleData)34_storage)"
      },
      {
        "astId": 334,
        "contract": "contracts/MazeNFT.sol:SD2023",
        "label": "__gap",
        "offset": 0,
        "slot": "402",
        "type": "t_array(t_uint256)49_storage"
      },
      {
        "astId": 5306,
        "contract": "contracts/MazeNFT.sol:SD2023",
        "label": "contractURI",
        "offset": 0,
        "slot": "451",
        "type": "t_string_storage"
      },
      {
        "astId": 5308,
        "contract": "contracts/MazeNFT.sol:SD2023",
        "label": "baseURI",
        "offset": 0,
        "slot": "452",
        "type": "t_string_storage"
      },
      {
        "astId": 5310,
        "contract": "contracts/MazeNFT.sol:SD2023",
        "label": "totalSupply",
        "offset": 0,
        "slot": "453",
        "type": "t_uint256"
      },
      {
        "astId": 5312,
        "contract": "contracts/MazeNFT.sol:SD2023",
        "label": "collector",
        "offset": 0,
        "slot": "454",
        "type": "t_address"
      },
      {
        "astId": 5316,
        "contract": "contracts/MazeNFT.sol:SD2023",
        "label": "marketPlaceAddresses",
        "offset": 0,
        "slot": "455",
        "type": "t_mapping(t_address,t_bool)"
      },
      {
        "astId": 5319,
        "contract": "contracts/MazeNFT.sol:SD2023",
        "label": "_tokenIdCounter",
        "offset": 0,
        "slot": "456",
        "type": "t_struct(Counter)2752_storage"
      }
    ],
    "types": {
      "t_address": {
        "encoding": "inplace",
        "label": "address",
        "numberOfBytes": "20"
      },
      "t_array(t_uint256)44_storage": {
        "base": "t_uint256",
        "encoding": "inplace",
        "label": "uint256[44]",
        "numberOfBytes": "1408"
      },
      "t_array(t_uint256)48_storage": {
        "base": "t_uint256",
        "encoding": "inplace",
        "label": "uint256[48]",
        "numberOfBytes": "1536"
      },
      "t_array(t_uint256)49_storage": {
        "base": "t_uint256",
        "encoding": "inplace",
        "label": "uint256[49]",
        "numberOfBytes": "1568"
      },
      "t_array(t_uint256)50_storage": {
        "base": "t_uint256",
        "encoding": "inplace",
        "label": "uint256[50]",
        "numberOfBytes": "1600"
      },
      "t_bool": {
        "encoding": "inplace",
        "label": "bool",
        "numberOfBytes": "1"
      },
      "t_bytes32": {
        "encoding": "inplace",
        "label": "bytes32",
        "numberOfBytes": "32"
      },
      "t_mapping(t_address,t_bool)": {
        "encoding": "mapping",
        "key": "t_address",
        "label": "mapping(address => bool)",
        "numberOfBytes": "32",
        "value": "t_bool"
      },
      "t_mapping(t_address,t_mapping(t_address,t_bool))": {
        "encoding": "mapping",
        "key": "t_address",
        "label": "mapping(address => mapping(address => bool))",
        "numberOfBytes": "32",
        "value": "t_mapping(t_address,t_bool)"
      },
      "t_mapping(t_address,t_uint256)": {
        "encoding": "mapping",
        "key": "t_address",
        "label": "mapping(address => uint256)",
        "numberOfBytes": "32",
        "value": "t_uint256"
      },
      "t_mapping(t_bytes32,t_struct(RoleData)34_storage)": {
        "encoding": "mapping",
        "key": "t_bytes32",
        "label": "mapping(bytes32 => struct AccessControlUpgradeable.RoleData)",
        "numberOfBytes": "32",
        "value": "t_struct(RoleData)34_storage"
      },
      "t_mapping(t_uint256,t_address)": {
        "encoding": "mapping",
        "key": "t_uint256",
        "label": "mapping(uint256 => address)",
        "numberOfBytes": "32",
        "value": "t_address"
      },
      "t_mapping(t_uint256,t_string_storage)": {
        "encoding": "mapping",
        "key": "t_uint256",
        "label": "mapping(uint256 => string)",
        "numberOfBytes": "32",
        "value": "t_string_storage"
      },
      "t_mapping(t_uint256,t_struct(RoyaltyInfo)2185_storage)": {
        "encoding": "mapping",
        "key": "t_uint256",
        "label": "mapping(uint256 => struct ERC2981Upgradeable.RoyaltyInfo)",
        "numberOfBytes": "32",
        "value": "t_struct(RoyaltyInfo)2185_storage"
      },
      "t_string_storage": {
        "encoding": "bytes",
        "label": "string",
        "numberOfBytes": "32"
      },
      "t_struct(Counter)2752_storage": {
        "encoding": "inplace",
        "label": "struct CountersUpgradeable.Counter",
        "members": [
          {
            "astId": 2751,
            "contract": "contracts/MazeNFT.sol:SD2023",
            "label": "_value",
            "offset": 0,
            "slot": "0",
            "type": "t_uint256"
          }
        ],
        "numberOfBytes": "32"
      },
      "t_struct(RoleData)34_storage": {
        "encoding": "inplace",
        "label": "struct AccessControlUpgradeable.RoleData",
        "members": [
          {
            "astId": 31,
            "contract": "contracts/MazeNFT.sol:SD2023",
            "label": "members",
            "offset": 0,
            "slot": "0",
            "type": "t_mapping(t_address,t_bool)"
          },
          {
            "astId": 33,
            "contract": "contracts/MazeNFT.sol:SD2023",
            "label": "adminRole",
            "offset": 0,
            "slot": "1",
            "type": "t_bytes32"
          }
        ],
        "numberOfBytes": "64"
      },
      "t_struct(RoyaltyInfo)2185_storage": {
        "encoding": "inplace",
        "label": "struct ERC2981Upgradeable.RoyaltyInfo",
        "members": [
          {
            "astId": 2182,
            "contract": "contracts/MazeNFT.sol:SD2023",
            "label": "receiver",
            "offset": 0,
            "slot": "0",
            "type": "t_address"
          },
          {
            "astId": 2184,
            "contract": "contracts/MazeNFT.sol:SD2023",
            "label": "royaltyFraction",
            "offset": 20,
            "slot": "0",
            "type": "t_uint96"
          }
        ],
        "numberOfBytes": "32"
      },
      "t_uint256": {
        "encoding": "inplace",
        "label": "uint256",
        "numberOfBytes": "32"
      },
      "t_uint8": {
        "encoding": "inplace",
        "label": "uint8",
        "numberOfBytes": "1"
      },
      "t_uint96": {
        "encoding": "inplace",
        "label": "uint96",
        "numberOfBytes": "12"
      }
    }
  }
}